{
  "_format": "hh-sol-artifact-1",
  "contractName": "L3USDGovernance",
  "sourceName": "contracts/L3USDGovernance.sol",
  "abi": [
    {
      "inputs": [
        {
          "internalType": "contract L3USD",
          "name": "_l3usd",
          "type": "address"
        }
      ],
      "stateMutability": "nonpayable",
      "type": "constructor"
    },
    {
      "inputs": [],
      "name": "AccessControlBadConfirmation",
      "type": "error"
    },
    {
      "inputs": [
        {
          "internalType": "address",
          "name": "account",
          "type": "address"
        },
        {
          "internalType": "bytes32",
          "name": "neededRole",
          "type": "bytes32"
        }
      ],
      "name": "AccessControlUnauthorizedAccount",
      "type": "error"
    },
    {
      "inputs": [
        {
          "internalType": "address",
          "name": "owner",
          "type": "address"
        }
      ],
      "name": "OwnableInvalidOwner",
      "type": "error"
    },
    {
      "inputs": [
        {
          "internalType": "address",
          "name": "account",
          "type": "address"
        }
      ],
      "name": "OwnableUnauthorizedAccount",
      "type": "error"
    },
    {
      "inputs": [],
      "name": "ReentrancyGuardReentrantCall",
      "type": "error"
    },
    {
      "anonymous": false,
      "inputs": [
        {
          "indexed": true,
          "internalType": "address",
          "name": "previousOwner",
          "type": "address"
        },
        {
          "indexed": true,
          "internalType": "address",
          "name": "newOwner",
          "type": "address"
        }
      ],
      "name": "OwnershipTransferred",
      "type": "event"
    },
    {
      "anonymous": false,
      "inputs": [
        {
          "indexed": false,
          "internalType": "uint256",
          "name": "time",
          "type": "uint256"
        },
        {
          "indexed": false,
          "internalType": "uint256",
          "name": "amount",
          "type": "uint256"
        }
      ],
      "name": "RepegAction",
      "type": "event"
    },
    {
      "anonymous": false,
      "inputs": [
        {
          "indexed": true,
          "internalType": "bytes32",
          "name": "role",
          "type": "bytes32"
        },
        {
          "indexed": true,
          "internalType": "bytes32",
          "name": "previousAdminRole",
          "type": "bytes32"
        },
        {
          "indexed": true,
          "internalType": "bytes32",
          "name": "newAdminRole",
          "type": "bytes32"
        }
      ],
      "name": "RoleAdminChanged",
      "type": "event"
    },
    {
      "anonymous": false,
      "inputs": [
        {
          "indexed": true,
          "internalType": "bytes32",
          "name": "role",
          "type": "bytes32"
        },
        {
          "indexed": true,
          "internalType": "address",
          "name": "account",
          "type": "address"
        },
        {
          "indexed": true,
          "internalType": "address",
          "name": "sender",
          "type": "address"
        }
      ],
      "name": "RoleGranted",
      "type": "event"
    },
    {
      "anonymous": false,
      "inputs": [
        {
          "indexed": true,
          "internalType": "bytes32",
          "name": "role",
          "type": "bytes32"
        },
        {
          "indexed": true,
          "internalType": "address",
          "name": "account",
          "type": "address"
        },
        {
          "indexed": true,
          "internalType": "address",
          "name": "sender",
          "type": "address"
        }
      ],
      "name": "RoleRevoked",
      "type": "event"
    },
    {
      "anonymous": false,
      "inputs": [
        {
          "indexed": false,
          "internalType": "uint256",
          "name": "time",
          "type": "uint256"
        },
        {
          "indexed": false,
          "internalType": "uint256",
          "name": "amount",
          "type": "uint256"
        }
      ],
      "name": "Withdraw",
      "type": "event"
    },
    {
      "inputs": [],
      "name": "DEFAULT_ADMIN_ROLE",
      "outputs": [
        {
          "internalType": "bytes32",
          "name": "",
          "type": "bytes32"
        }
      ],
      "stateMutability": "view",
      "type": "function"
    },
    {
      "inputs": [],
      "name": "GOVERN_ROLE",
      "outputs": [
        {
          "internalType": "bytes32",
          "name": "",
          "type": "bytes32"
        }
      ],
      "stateMutability": "view",
      "type": "function"
    },
    {
      "inputs": [
        {
          "internalType": "uint256",
          "name": "",
          "type": "uint256"
        }
      ],
      "name": "_supplyChanges",
      "outputs": [
        {
          "internalType": "string",
          "name": "method",
          "type": "string"
        },
        {
          "internalType": "uint256",
          "name": "amount",
          "type": "uint256"
        },
        {
          "internalType": "uint256",
          "name": "timestamp",
          "type": "uint256"
        },
        {
          "internalType": "uint256",
          "name": "blocknum",
          "type": "uint256"
        }
      ],
      "stateMutability": "view",
      "type": "function"
    },
    {
      "inputs": [],
      "name": "datafeed",
      "outputs": [
        {
          "internalType": "address",
          "name": "",
          "type": "address"
        }
      ],
      "stateMutability": "view",
      "type": "function"
    },
    {
      "inputs": [],
      "name": "fetchColPrice",
      "outputs": [],
      "stateMutability": "nonpayable",
      "type": "function"
    },
    {
      "inputs": [
        {
          "internalType": "bytes32",
          "name": "role",
          "type": "bytes32"
        }
      ],
      "name": "getRoleAdmin",
      "outputs": [
        {
          "internalType": "bytes32",
          "name": "",
          "type": "bytes32"
        }
      ],
      "stateMutability": "view",
      "type": "function"
    },
    {
      "inputs": [
        {
          "internalType": "bytes32",
          "name": "role",
          "type": "bytes32"
        },
        {
          "internalType": "address",
          "name": "account",
          "type": "address"
        }
      ],
      "name": "grantRole",
      "outputs": [],
      "stateMutability": "nonpayable",
      "type": "function"
    },
    {
      "inputs": [
        {
          "internalType": "bytes32",
          "name": "role",
          "type": "bytes32"
        },
        {
          "internalType": "address",
          "name": "account",
          "type": "address"
        }
      ],
      "name": "hasRole",
      "outputs": [
        {
          "internalType": "bool",
          "name": "",
          "type": "bool"
        }
      ],
      "stateMutability": "view",
      "type": "function"
    },
    {
      "inputs": [],
      "name": "l3usdsupply",
      "outputs": [
        {
          "internalType": "uint256",
          "name": "",
          "type": "uint256"
        }
      ],
      "stateMutability": "view",
      "type": "function"
    },
    {
      "inputs": [],
      "name": "owner",
      "outputs": [
        {
          "internalType": "address",
          "name": "",
          "type": "address"
        }
      ],
      "stateMutability": "view",
      "type": "function"
    },
    {
      "inputs": [],
      "name": "renounceOwnership",
      "outputs": [],
      "stateMutability": "nonpayable",
      "type": "function"
    },
    {
      "inputs": [
        {
          "internalType": "bytes32",
          "name": "role",
          "type": "bytes32"
        },
        {
          "internalType": "address",
          "name": "callerConfirmation",
          "type": "address"
        }
      ],
      "name": "renounceRole",
      "outputs": [],
      "stateMutability": "nonpayable",
      "type": "function"
    },
    {
      "inputs": [],
      "name": "reserveCount",
      "outputs": [
        {
          "internalType": "uint256",
          "name": "",
          "type": "uint256"
        }
      ],
      "stateMutability": "view",
      "type": "function"
    },
    {
      "inputs": [
        {
          "internalType": "bytes32",
          "name": "role",
          "type": "bytes32"
        },
        {
          "internalType": "address",
          "name": "account",
          "type": "address"
        }
      ],
      "name": "revokeRole",
      "outputs": [],
      "stateMutability": "nonpayable",
      "type": "function"
    },
    {
      "inputs": [
        {
          "internalType": "uint256",
          "name": "",
          "type": "uint256"
        }
      ],
      "name": "rsvList",
      "outputs": [
        {
          "internalType": "contract IERC20",
          "name": "colToken",
          "type": "address"
        }
      ],
      "stateMutability": "view",
      "type": "function"
    },
    {
      "inputs": [
        {
          "internalType": "address",
          "name": "contractaddress",
          "type": "address"
        }
      ],
      "name": "setDataFeedAddress",
      "outputs": [],
      "stateMutability": "nonpayable",
      "type": "function"
    },
    {
      "inputs": [
        {
          "internalType": "address",
          "name": "reserve",
          "type": "address"
        }
      ],
      "name": "setReserveContract",
      "outputs": [],
      "stateMutability": "nonpayable",
      "type": "function"
    },
    {
      "inputs": [
        {
          "internalType": "uint256",
          "name": "totalSupply",
          "type": "uint256"
        }
      ],
      "name": "setl3USDSupply",
      "outputs": [],
      "stateMutability": "nonpayable",
      "type": "function"
    },
    {
      "inputs": [],
      "name": "stableColatAmount",
      "outputs": [
        {
          "internalType": "uint256",
          "name": "",
          "type": "uint256"
        }
      ],
      "stateMutability": "view",
      "type": "function"
    },
    {
      "inputs": [],
      "name": "stableColatPrice",
      "outputs": [
        {
          "internalType": "uint256",
          "name": "",
          "type": "uint256"
        }
      ],
      "stateMutability": "view",
      "type": "function"
    },
    {
      "inputs": [],
      "name": "supplyChangeCount",
      "outputs": [
        {
          "internalType": "uint256",
          "name": "",
          "type": "uint256"
        }
      ],
      "stateMutability": "view",
      "type": "function"
    },
    {
      "inputs": [
        {
          "internalType": "bytes4",
          "name": "interfaceId",
          "type": "bytes4"
        }
      ],
      "name": "supportsInterface",
      "outputs": [
        {
          "internalType": "bool",
          "name": "",
          "type": "bool"
        }
      ],
      "stateMutability": "view",
      "type": "function"
    },
    {
      "inputs": [
        {
          "internalType": "address",
          "name": "newOwner",
          "type": "address"
        }
      ],
      "name": "transferOwnership",
      "outputs": [],
      "stateMutability": "nonpayable",
      "type": "function"
    },
    {
      "inputs": [],
      "name": "validatePeg",
      "outputs": [],
      "stateMutability": "nonpayable",
      "type": "function"
    },
    {
      "inputs": [
        {
          "internalType": "uint256",
          "name": "_amount",
          "type": "uint256"
        }
      ],
      "name": "withdraw",
      "outputs": [],
      "stateMutability": "nonpayable",
      "type": "function"
    }
  ],
  "bytecode": "0x608060405234801561001057600080fd5b506040516112c63803806112c683398101604081905261002f916101c1565b338061005557604051631e4fbdf760e01b81526000600482015260240160405180910390fd5b61005e816100c1565b5060018055600580546001600160a01b0319166001600160a01b03831617905561008f600061008a3390565b610111565b506100ba7f899bd46557473cb80307a9dabc297131ced39608330a2d29b2d52b660c03923e33610111565b50506101f1565b600080546001600160a01b038381166001600160a01b0319831681178455604051919092169283917f8be0079c531659141344cd1fd0a4f28419497f9722a3daafe3b4186f6b6457e09190a35050565b60008281526002602090815260408083206001600160a01b038516845290915281205460ff166101b75760008381526002602090815260408083206001600160a01b03861684529091529020805460ff1916600117905561016f3390565b6001600160a01b0316826001600160a01b0316847f2f8788117e7eff1d82e926ec794901d17c78024a50270940304540a733656f0d60405160405180910390a45060016101bb565b5060005b92915050565b6000602082840312156101d357600080fd5b81516001600160a01b03811681146101ea57600080fd5b9392505050565b6110c6806102006000396000f3fe608060405234801561001057600080fd5b50600436106101735760003560e01c8063527a52c8116100de57806391d1485411610097578063a6ef79b411610071578063a6ef79b414610316578063d2b433c014610339578063d547741f14610342578063f2fde38b1461035557600080fd5b806391d14854146102f25780639588e61414610305578063a217fddf1461030e57600080fd5b8063527a52c81461028d578063669004f9146102a0578063715018a6146102c957806381613f25146102d15780638a6e0169146102d95780638da5cb5b146102e157600080fd5b80632e1a7d4d116101305780632e1a7d4d146102235780632f2ff15d146102365780632f41ffd01461024957806336568abe1461025257806338b7f44614610265578063403f33131461027a57600080fd5b806301ffc9a71461017857806316317c21146101a057806319cb170c146101b7578063248a9ca3146101c057806326ba7898146101e35780632dc47153146101f8575b600080fd5b61018b610186366004610ce1565b610368565b60405190151581526020015b60405180910390f35b6101a9600c5481565b604051908152602001610197565b6101a960095481565b6101a96101ce366004610d12565b60009081526002602052604090206001015490565b6101f66101f1366004610d47565b61039f565b005b600b5461020b906001600160a01b031681565b6040516001600160a01b039091168152602001610197565b6101f6610231366004610d12565b6103e4565b6101f6610244366004610d62565b6104c0565b6101a960085481565b6101f6610260366004610d62565b6104eb565b6101a960008051602061107183398151915281565b6101f6610288366004610d12565b610523565b6101f661029b366004610d47565b610541565b61020b6102ae366004610d12565b6003602052600090815260409020546001600160a01b031681565b6101f6610584565b6101f6610598565b6101f661065a565b6000546001600160a01b031661020b565b61018b610300366004610d62565b6108df565b6101a9600a5481565b6101a9600081565b610329610324366004610d12565b61090a565b6040516101979493929190610d8e565b6101a960075481565b6101f6610350366004610d62565b6109ba565b6101f6610363366004610d47565b6109df565b60006001600160e01b03198216637965db0b60e01b148061039957506301ffc9a760e01b6001600160e01b03198316145b92915050565b6000805160206110718339815191526103b781610a1f565b50600b80546001600160a01b039092166001600160a01b0319928316811790915560048054909216179055565b6103ec610a29565b60008051602061107183398151915261040481610a1f565b60055460405163a9059cbb60e01b8152336004820152602481018490526001600160a01b039091169063a9059cbb906044016020604051808303816000875af1158015610455573d6000803e3d6000fd5b505050506040513d601f19601f820116820180604052508101906104799190610df1565b5060408051428152602081018490527f56ca301a9219608c91e7bcee90e083c19671d2cdcc96752c7af291cee5f9c8c8910160405180910390a1506104bd60018055565b50565b6000828152600260205260409020600101546104db81610a1f565b6104e58383610a59565b50505050565b6001600160a01b03811633146105145760405163334bd91960e11b815260040160405180910390fd5b61051e8282610aed565b505050565b60008051602061107183398151915261053b81610a1f565b50600755565b610549610a29565b60008051602061107183398151915261056181610a1f565b50600680546001600160a01b0319166001600160a01b0383161790556001805550565b61058c610b5a565b6105966000610b87565b565b6105a0610a29565b6000805160206110718339815191526105b881610a1f565b6000600460009054906101000a90046001600160a01b03166001600160a01b031663feaf968c6040518163ffffffff1660e01b815260040160a060405180830381865afa15801561060d573d6000803e3d6000fd5b505050506040513d601f19601f820116820180604052508101906106319190610e2d565b50505091505060006402540be4008261064a9190610e95565b600955506105969150610a539050565b610662610a29565b60008051602061107183398151915261067a81610a1f565b6000610684610bd7565b50600190506000670de0b6b3a7640000600a546106a19190610e95565b905060006106b7670de0b6b3a764000083610eac565b905060075481101561078a576000816007546106d39190610ece565b60065460405163767a7b0560e01b815260006004820152602481018390529192506001600160a01b03169063767a7b0590604401600060405180830381600087803b15801561072157600080fd5b505af1158015610735573d6000803e3d6000fd5b50506040805180820182526004815263213ab93760e11b6020808301919091526008546000908152600d909152919091209250610773915082610f7f565b506008546000908152600d60205260409020600101555b60075481111561085b576000600754826107a49190610ece565b6006546040516376709b9960e11b815260006004820152602481018390529192506001600160a01b03169063ece1373290604401600060405180830381600087803b1580156107f257600080fd5b505af1158015610806573d6000803e3d6000fd5b50506040805180820182526004815263135a5b9d60e21b6020808301919091526008546000908152600d909152919091209250610844915082610f7f565b506008546000908152600d60205260409020600101555b6007819055600880546000908152600d60205260408082204360039091015582548252812042600290910155815491906108948361103e565b909155505060408051428152602081018390527f2a6a493f767ec856dcac2f52ecc7e244b432c2d615092ef532c22a94568ed995910160405180910390a15050505061059660018055565b60009182526002602090815260408084206001600160a01b0393909316845291905290205460ff1690565b600d6020526000908152604090208054819061092590610ef7565b80601f016020809104026020016040519081016040528092919081815260200182805461095190610ef7565b801561099e5780601f106109735761010080835404028352916020019161099e565b820191906000526020600020905b81548152906001019060200180831161098157829003601f168201915b5050505050908060010154908060020154908060030154905084565b6000828152600260205260409020600101546109d581610a1f565b6104e58383610aed565b6109e7610b5a565b6001600160a01b038116610a1657604051631e4fbdf760e01b8152600060048201526024015b60405180910390fd5b6104bd81610b87565b6104bd8133610ca4565b600260015403610a4c57604051633ee5aeb560e01b815260040160405180910390fd5b6002600155565b60018055565b6000610a6583836108df565b610ae55760008381526002602090815260408083206001600160a01b03861684529091529020805460ff19166001179055610a9d3390565b6001600160a01b0316826001600160a01b0316847f2f8788117e7eff1d82e926ec794901d17c78024a50270940304540a733656f0d60405160405180910390a4506001610399565b506000610399565b6000610af983836108df565b15610ae55760008381526002602090815260408083206001600160a01b0386168085529252808320805460ff1916905551339286917ff6391f5c32d9c69d2a47ea670b442974b53935d1edc7fd64eb21e047a839171b9190a4506001610399565b6000546001600160a01b031633146105965760405163118cdaa760e01b8152336004820152602401610a0d565b600080546001600160a01b038381166001600160a01b0319831681178455604051919092169283917f8be0079c531659141344cd1fd0a4f28419497f9722a3daafe3b4186f6b6457e09190a35050565b6000600080516020611071833981519152610bf181610a1f565b600080805260036020527f3617319a054d772f909f7c479a2cebe5066e836a939412e32403c99029b92eff546006546040516370a0823160e01b81526001600160a01b0391821660048201529116906370a0823190602401602060405180830381865afa158015610c66573d6000803e3d6000fd5b505050506040513d601f19601f82011682018060405250810190610c8a9190611057565b9050600a548114610c9b57600a8190555b60019250505090565b610cae82826108df565b610cdd5760405163e2517d3f60e01b81526001600160a01b038216600482015260248101839052604401610a0d565b5050565b600060208284031215610cf357600080fd5b81356001600160e01b031981168114610d0b57600080fd5b9392505050565b600060208284031215610d2457600080fd5b5035919050565b80356001600160a01b0381168114610d4257600080fd5b919050565b600060208284031215610d5957600080fd5b610d0b82610d2b565b60008060408385031215610d7557600080fd5b82359150610d8560208401610d2b565b90509250929050565b608081526000855180608084015260005b81811015610dbc57602081890181015160a0868401015201610d9f565b50600060a0828501015260a0601f19601f83011684010191505084602083015283604083015282606083015295945050505050565b600060208284031215610e0357600080fd5b81518015158114610d0b57600080fd5b805169ffffffffffffffffffff81168114610d4257600080fd5b600080600080600060a08688031215610e4557600080fd5b610e4e86610e13565b60208701516040880151606089015192975090955093509150610e7360808701610e13565b90509295509295909350565b634e487b7160e01b600052601160045260246000fd5b808202811582820484141761039957610399610e7f565b600082610ec957634e487b7160e01b600052601260045260246000fd5b500490565b8181038181111561039957610399610e7f565b634e487b7160e01b600052604160045260246000fd5b600181811c90821680610f0b57607f821691505b602082108103610f2b57634e487b7160e01b600052602260045260246000fd5b50919050565b601f82111561051e57806000526020600020601f840160051c81016020851015610f585750805b601f840160051c820191505b81811015610f785760008155600101610f64565b5050505050565b815167ffffffffffffffff811115610f9957610f99610ee1565b610fad81610fa78454610ef7565b84610f31565b6020601f821160018114610fe15760008315610fc95750848201515b600019600385901b1c1916600184901b178455610f78565b600084815260208120601f198516915b828110156110115787850151825560209485019460019092019101610ff1565b508482101561102f5786840151600019600387901b60f8161c191681555b50505050600190811b01905550565b60006001820161105057611050610e7f565b5060010190565b60006020828403121561106957600080fd5b505191905056fe899bd46557473cb80307a9dabc297131ced39608330a2d29b2d52b660c03923ea2646970667358221220cce1a88631732ca34c7dd037db0bd802dd0e322b8f7fec370cb7434e5426b4e864736f6c634300081b0033",
  "linkReferences": {},
  "deployedLinkReferences": {}
}