{
  "_format": "hh-sol-artifact-1",
  "contractName": "L3USDReserves",
  "sourceName": "contracts/L3USDReserves.sol",
  "abi": [
    {
      "inputs": [],
      "stateMutability": "nonpayable",
      "type": "constructor"
    },
    {
      "inputs": [],
      "name": "AccessControlBadConfirmation",
      "type": "error"
    },
    {
      "inputs": [
        {
          "internalType": "address",
          "name": "account",
          "type": "address"
        },
        {
          "internalType": "bytes32",
          "name": "neededRole",
          "type": "bytes32"
        }
      ],
      "name": "AccessControlUnauthorizedAccount",
      "type": "error"
    },
    {
      "inputs": [
        {
          "internalType": "address",
          "name": "owner",
          "type": "address"
        }
      ],
      "name": "OwnableInvalidOwner",
      "type": "error"
    },
    {
      "inputs": [
        {
          "internalType": "address",
          "name": "account",
          "type": "address"
        }
      ],
      "name": "OwnableUnauthorizedAccount",
      "type": "error"
    },
    {
      "inputs": [],
      "name": "ReentrancyGuardReentrantCall",
      "type": "error"
    },
    {
      "inputs": [
        {
          "internalType": "address",
          "name": "token",
          "type": "address"
        }
      ],
      "name": "SafeERC20FailedOperation",
      "type": "error"
    },
    {
      "anonymous": false,
      "inputs": [
        {
          "indexed": true,
          "internalType": "uint256",
          "name": "vid",
          "type": "uint256"
        },
        {
          "indexed": false,
          "internalType": "uint256",
          "name": "amount",
          "type": "uint256"
        }
      ],
      "name": "Deposit",
      "type": "event"
    },
    {
      "anonymous": false,
      "inputs": [
        {
          "indexed": true,
          "internalType": "address",
          "name": "previousOwner",
          "type": "address"
        },
        {
          "indexed": true,
          "internalType": "address",
          "name": "newOwner",
          "type": "address"
        }
      ],
      "name": "OwnershipTransferred",
      "type": "event"
    },
    {
      "anonymous": false,
      "inputs": [
        {
          "indexed": true,
          "internalType": "bytes32",
          "name": "role",
          "type": "bytes32"
        },
        {
          "indexed": true,
          "internalType": "bytes32",
          "name": "previousAdminRole",
          "type": "bytes32"
        },
        {
          "indexed": true,
          "internalType": "bytes32",
          "name": "newAdminRole",
          "type": "bytes32"
        }
      ],
      "name": "RoleAdminChanged",
      "type": "event"
    },
    {
      "anonymous": false,
      "inputs": [
        {
          "indexed": true,
          "internalType": "bytes32",
          "name": "role",
          "type": "bytes32"
        },
        {
          "indexed": true,
          "internalType": "address",
          "name": "account",
          "type": "address"
        },
        {
          "indexed": true,
          "internalType": "address",
          "name": "sender",
          "type": "address"
        }
      ],
      "name": "RoleGranted",
      "type": "event"
    },
    {
      "anonymous": false,
      "inputs": [
        {
          "indexed": true,
          "internalType": "bytes32",
          "name": "role",
          "type": "bytes32"
        },
        {
          "indexed": true,
          "internalType": "address",
          "name": "account",
          "type": "address"
        },
        {
          "indexed": true,
          "internalType": "address",
          "name": "sender",
          "type": "address"
        }
      ],
      "name": "RoleRevoked",
      "type": "event"
    },
    {
      "anonymous": false,
      "inputs": [
        {
          "indexed": true,
          "internalType": "uint256",
          "name": "vid",
          "type": "uint256"
        },
        {
          "indexed": false,
          "internalType": "uint256",
          "name": "amount",
          "type": "uint256"
        }
      ],
      "name": "Withdraw",
      "type": "event"
    },
    {
      "inputs": [],
      "name": "DEFAULT_ADMIN_ROLE",
      "outputs": [
        {
          "internalType": "bytes32",
          "name": "",
          "type": "bytes32"
        }
      ],
      "stateMutability": "view",
      "type": "function"
    },
    {
      "inputs": [],
      "name": "MANAGER_ROLE",
      "outputs": [
        {
          "internalType": "bytes32",
          "name": "",
          "type": "bytes32"
        }
      ],
      "stateMutability": "view",
      "type": "function"
    },
    {
      "inputs": [
        {
          "internalType": "uint256",
          "name": "",
          "type": "uint256"
        }
      ],
      "name": "_rsvVault",
      "outputs": [
        {
          "internalType": "contract IERC20",
          "name": "collateral",
          "type": "address"
        },
        {
          "internalType": "uint256",
          "name": "amount",
          "type": "uint256"
        }
      ],
      "stateMutability": "view",
      "type": "function"
    },
    {
      "inputs": [
        {
          "internalType": "contract IERC20",
          "name": "_collateral",
          "type": "address"
        }
      ],
      "name": "addReserveVault",
      "outputs": [],
      "stateMutability": "nonpayable",
      "type": "function"
    },
    {
      "inputs": [],
      "name": "currentReserveId",
      "outputs": [
        {
          "internalType": "uint256",
          "name": "",
          "type": "uint256"
        }
      ],
      "stateMutability": "view",
      "type": "function"
    },
    {
      "inputs": [
        {
          "internalType": "uint256",
          "name": "vid",
          "type": "uint256"
        },
        {
          "internalType": "uint256",
          "name": "amount",
          "type": "uint256"
        }
      ],
      "name": "depositCollateral",
      "outputs": [],
      "stateMutability": "nonpayable",
      "type": "function"
    },
    {
      "inputs": [
        {
          "internalType": "bytes32",
          "name": "role",
          "type": "bytes32"
        }
      ],
      "name": "getRoleAdmin",
      "outputs": [
        {
          "internalType": "bytes32",
          "name": "",
          "type": "bytes32"
        }
      ],
      "stateMutability": "view",
      "type": "function"
    },
    {
      "inputs": [
        {
          "internalType": "bytes32",
          "name": "role",
          "type": "bytes32"
        },
        {
          "internalType": "address",
          "name": "account",
          "type": "address"
        }
      ],
      "name": "grantRole",
      "outputs": [],
      "stateMutability": "nonpayable",
      "type": "function"
    },
    {
      "inputs": [
        {
          "internalType": "bytes32",
          "name": "role",
          "type": "bytes32"
        },
        {
          "internalType": "address",
          "name": "account",
          "type": "address"
        }
      ],
      "name": "hasRole",
      "outputs": [
        {
          "internalType": "bool",
          "name": "",
          "type": "bool"
        }
      ],
      "stateMutability": "view",
      "type": "function"
    },
    {
      "inputs": [],
      "name": "owner",
      "outputs": [
        {
          "internalType": "address",
          "name": "",
          "type": "address"
        }
      ],
      "stateMutability": "view",
      "type": "function"
    },
    {
      "inputs": [],
      "name": "renounceOwnership",
      "outputs": [],
      "stateMutability": "nonpayable",
      "type": "function"
    },
    {
      "inputs": [
        {
          "internalType": "bytes32",
          "name": "role",
          "type": "bytes32"
        },
        {
          "internalType": "address",
          "name": "callerConfirmation",
          "type": "address"
        }
      ],
      "name": "renounceRole",
      "outputs": [],
      "stateMutability": "nonpayable",
      "type": "function"
    },
    {
      "inputs": [
        {
          "internalType": "bytes32",
          "name": "role",
          "type": "bytes32"
        },
        {
          "internalType": "address",
          "name": "account",
          "type": "address"
        }
      ],
      "name": "revokeRole",
      "outputs": [],
      "stateMutability": "nonpayable",
      "type": "function"
    },
    {
      "inputs": [
        {
          "internalType": "bytes4",
          "name": "interfaceId",
          "type": "bytes4"
        }
      ],
      "name": "supportsInterface",
      "outputs": [
        {
          "internalType": "bool",
          "name": "",
          "type": "bool"
        }
      ],
      "stateMutability": "view",
      "type": "function"
    },
    {
      "inputs": [
        {
          "internalType": "address",
          "name": "newOwner",
          "type": "address"
        }
      ],
      "name": "transferOwnership",
      "outputs": [],
      "stateMutability": "nonpayable",
      "type": "function"
    },
    {
      "inputs": [
        {
          "internalType": "uint256",
          "name": "vid",
          "type": "uint256"
        },
        {
          "internalType": "uint256",
          "name": "amount",
          "type": "uint256"
        }
      ],
      "name": "withdrawCollateral",
      "outputs": [],
      "stateMutability": "nonpayable",
      "type": "function"
    }
  ],
  "bytecode": "0x608060405234801561001057600080fd5b50338061003757604051631e4fbdf760e01b81526000600482015260240160405180910390fd5b61004081610081565b50600180556100506000336100d1565b5061007b7f241ecf16d79d0f8dbfb92cbc07fe17840425976cf0667f022fe9877caa831b08336100d1565b50610181565b600080546001600160a01b038381166001600160a01b0319831681178455604051919092169283917f8be0079c531659141344cd1fd0a4f28419497f9722a3daafe3b4186f6b6457e09190a35050565b60008281526002602090815260408083206001600160a01b038516845290915281205460ff166101775760008381526002602090815260408083206001600160a01b03861684529091529020805460ff1916600117905561012f3390565b6001600160a01b0316826001600160a01b0316847f2f8788117e7eff1d82e926ec794901d17c78024a50270940304540a733656f0d60405160405180910390a450600161017b565b5060005b92915050565b610a46806101906000396000f3fe608060405234801561001057600080fd5b50600436106101005760003560e01c8063767a7b0511610097578063d547741f11610066578063d547741f14610245578063ec87621c14610258578063ece137321461026d578063f2fde38b1461028057600080fd5b8063767a7b05146101fc5780638da5cb5b1461020f57806391d148541461022a578063a217fddf1461023d57600080fd5b806336568abe116100d357806336568abe146101c55780633b61f098146101d85780635306f102146101eb578063715018a6146101f457600080fd5b806301ffc9a714610105578063248a9ca31461012d578063279ba28d1461015e5780632f2ff15d146101b0575b600080fd5b6101186101133660046108cd565b610293565b60405190151581526020015b60405180910390f35b61015061013b3660046108fe565b60009081526002602052604090206001015490565b604051908152602001610124565b61019161016c3660046108fe565b600460205260009081526040902080546001909101546001600160a01b039091169082565b604080516001600160a01b039093168352602083019190915201610124565b6101c36101be36600461092c565b6102ca565b005b6101c36101d336600461092c565b6102f5565b6101c36101e636600461095c565b61032d565b61015060035481565b6101c361040c565b6101c361020a366004610979565b610420565b6000546040516001600160a01b039091168152602001610124565b61011861023836600461092c565b6104d2565b610150600081565b6101c361025336600461092c565b6104fd565b6101506000805160206109f183398151915281565b6101c361027b366004610979565b610522565b6101c361028e36600461095c565b6105c1565b60006001600160e01b03198216637965db0b60e01b14806102c457506301ffc9a760e01b6001600160e01b03198316145b92915050565b6000828152600260205260409020600101546102e5816105ff565b6102ef8383610609565b50505050565b6001600160a01b038116331461031e5760405163334bd91960e11b815260040160405180910390fd5b610328828261069d565b505050565b6000805160206109f1833981519152610345816105ff565b8160005b6003548110156103c9576000818152600460205260409020546001600160a01b038084169116036103c15760405162461bcd60e51b815260206004820181905260248201527f436f6c6c61746572616c204164647265737320416c726561647920416464656460448201526064015b60405180910390fd5b600101610349565b5060038054600090815260046020526040812080546001600160a01b0319166001600160a01b03871617905581549190610402836109b1565b9190505550505050565b61041461070a565b61041e6000610737565b565b6000805160206109f1833981519152610438816105ff565b600083815260046020526040902080546001909101546001600160a01b03909116908381106104cb576104756001600160a01b0383163386610787565b61047f84826109ca565b600086815260046020908152604091829020600101929092555185815286917f56ca301a9219608c91e7bcee90e083c19671d2cdcc96752c7af291cee5f9c8c891015b60405180910390a25b5050505050565b60009182526002602090815260408084206001600160a01b0393909316845291905290205460ff1690565b600082815260026020526040902060010154610518816105ff565b6102ef838361069d565b6000805160206109f183398151915261053a816105ff565b6000838152600460205260409020546001600160a01b031661055e813330866107e6565b60008481526004602052604090206001015461057a84826109dd565b600086815260046020908152604091829020600101929092555185815286917fa3af609bf46297028ce551832669030f9effef2b02606d02cbbcc40fe6b47c5591016104c2565b6105c961070a565b6001600160a01b0381166105f357604051631e4fbdf760e01b8152600060048201526024016103b8565b6105fc81610737565b50565b6105fc813361081f565b600061061583836104d2565b6106955760008381526002602090815260408083206001600160a01b03861684529091529020805460ff1916600117905561064d3390565b6001600160a01b0316826001600160a01b0316847f2f8788117e7eff1d82e926ec794901d17c78024a50270940304540a733656f0d60405160405180910390a45060016102c4565b5060006102c4565b60006106a983836104d2565b156106955760008381526002602090815260408083206001600160a01b0386168085529252808320805460ff1916905551339286917ff6391f5c32d9c69d2a47ea670b442974b53935d1edc7fd64eb21e047a839171b9190a45060016102c4565b6000546001600160a01b0316331461041e5760405163118cdaa760e01b81523360048201526024016103b8565b600080546001600160a01b038381166001600160a01b0319831681178455604051919092169283917f8be0079c531659141344cd1fd0a4f28419497f9722a3daafe3b4186f6b6457e09190a35050565b6040516001600160a01b0383811660248301526044820183905261032891859182169063a9059cbb906064015b604051602081830303815290604052915060e01b6020820180516001600160e01b03838183161783525050505061085c565b6040516001600160a01b0384811660248301528381166044830152606482018390526102ef9186918216906323b872dd906084016107b4565b61082982826104d2565b6108585760405163e2517d3f60e01b81526001600160a01b0382166004820152602481018390526044016103b8565b5050565b600080602060008451602086016000885af18061087f576040513d6000823e3d81fd5b50506000513d915081156108975780600114156108a4565b6001600160a01b0384163b155b156102ef57604051635274afe760e01b81526001600160a01b03851660048201526024016103b8565b6000602082840312156108df57600080fd5b81356001600160e01b0319811681146108f757600080fd5b9392505050565b60006020828403121561091057600080fd5b5035919050565b6001600160a01b03811681146105fc57600080fd5b6000806040838503121561093f57600080fd5b82359150602083013561095181610917565b809150509250929050565b60006020828403121561096e57600080fd5b81356108f781610917565b6000806040838503121561098c57600080fd5b50508035926020909101359150565b634e487b7160e01b600052601160045260246000fd5b6000600182016109c3576109c361099b565b5060010190565b818103818111156102c4576102c461099b565b808201808211156102c4576102c461099b56fe241ecf16d79d0f8dbfb92cbc07fe17840425976cf0667f022fe9877caa831b08a26469706673582212207cc9635db8223fc7a896c855e77c28c86135831d0f41f27590b8512f0304a68a64736f6c634300081b0033",
  "linkReferences": {},
  "deployedLinkReferences": {}
}