{
  "_format": "hh-sol-artifact-1",
  "contractName": "MLink",
  "sourceName": "contracts/link/MLink.sol",
  "abi": [
    {
      "constant": true,
      "inputs": [],
      "name": "name",
      "outputs": [
        {
          "name": "",
          "type": "string"
        }
      ],
      "payable": false,
      "type": "function"
    },
    {
      "constant": false,
      "inputs": [
        {
          "name": "_spender",
          "type": "address"
        },
        {
          "name": "_value",
          "type": "uint256"
        }
      ],
      "name": "approve",
      "outputs": [
        {
          "name": "",
          "type": "bool"
        }
      ],
      "payable": false,
      "type": "function"
    },
    {
      "constant": true,
      "inputs": [],
      "name": "totalSupply",
      "outputs": [
        {
          "name": "",
          "type": "uint256"
        }
      ],
      "payable": false,
      "type": "function"
    },
    {
      "constant": false,
      "inputs": [
        {
          "name": "_from",
          "type": "address"
        },
        {
          "name": "_to",
          "type": "address"
        },
        {
          "name": "_value",
          "type": "uint256"
        }
      ],
      "name": "transferFrom",
      "outputs": [
        {
          "name": "",
          "type": "bool"
        }
      ],
      "payable": false,
      "type": "function"
    },
    {
      "constant": true,
      "inputs": [],
      "name": "decimals",
      "outputs": [
        {
          "name": "",
          "type": "uint8"
        }
      ],
      "payable": false,
      "type": "function"
    },
    {
      "constant": false,
      "inputs": [
        {
          "name": "_to",
          "type": "address"
        },
        {
          "name": "_value",
          "type": "uint256"
        },
        {
          "name": "_data",
          "type": "bytes"
        }
      ],
      "name": "transferAndCall",
      "outputs": [
        {
          "name": "success",
          "type": "bool"
        }
      ],
      "payable": false,
      "type": "function"
    },
    {
      "constant": false,
      "inputs": [],
      "name": "LinkToken",
      "outputs": [],
      "payable": false,
      "type": "function"
    },
    {
      "constant": false,
      "inputs": [
        {
          "name": "_spender",
          "type": "address"
        },
        {
          "name": "_subtractedValue",
          "type": "uint256"
        }
      ],
      "name": "decreaseApproval",
      "outputs": [
        {
          "name": "success",
          "type": "bool"
        }
      ],
      "payable": false,
      "type": "function"
    },
    {
      "constant": true,
      "inputs": [
        {
          "name": "_owner",
          "type": "address"
        }
      ],
      "name": "balanceOf",
      "outputs": [
        {
          "name": "balance",
          "type": "uint256"
        }
      ],
      "payable": false,
      "type": "function"
    },
    {
      "constant": true,
      "inputs": [],
      "name": "symbol",
      "outputs": [
        {
          "name": "",
          "type": "string"
        }
      ],
      "payable": false,
      "type": "function"
    },
    {
      "constant": false,
      "inputs": [
        {
          "name": "_to",
          "type": "address"
        },
        {
          "name": "_value",
          "type": "uint256"
        }
      ],
      "name": "transfer",
      "outputs": [
        {
          "name": "success",
          "type": "bool"
        }
      ],
      "payable": false,
      "type": "function"
    },
    {
      "constant": false,
      "inputs": [
        {
          "name": "_spender",
          "type": "address"
        },
        {
          "name": "_addedValue",
          "type": "uint256"
        }
      ],
      "name": "increaseApproval",
      "outputs": [
        {
          "name": "success",
          "type": "bool"
        }
      ],
      "payable": false,
      "type": "function"
    },
    {
      "constant": true,
      "inputs": [
        {
          "name": "_owner",
          "type": "address"
        },
        {
          "name": "_spender",
          "type": "address"
        }
      ],
      "name": "allowance",
      "outputs": [
        {
          "name": "remaining",
          "type": "uint256"
        }
      ],
      "payable": false,
      "type": "function"
    },
    {
      "anonymous": false,
      "inputs": [
        {
          "indexed": true,
          "name": "from",
          "type": "address"
        },
        {
          "indexed": true,
          "name": "to",
          "type": "address"
        },
        {
          "indexed": false,
          "name": "value",
          "type": "uint256"
        },
        {
          "indexed": false,
          "name": "data",
          "type": "bytes"
        }
      ],
      "name": "Transfer",
      "type": "event"
    },
    {
      "anonymous": false,
      "inputs": [
        {
          "indexed": true,
          "name": "owner",
          "type": "address"
        },
        {
          "indexed": true,
          "name": "spender",
          "type": "address"
        },
        {
          "indexed": false,
          "name": "value",
          "type": "uint256"
        }
      ],
      "name": "Approval",
      "type": "event"
    }
  ],
  "bytecode": "0x6060604052341561000c57fe5b5b610c988061001c6000396000f300606060405236156100c25763ffffffff7c010000000000000000000000000000000000000000000000000000000060003504166306fdde0381146100c4578063095ea7b31461015457806318160ddd1461018757806323b872dd146101a9578063313ce567146101e25780634000aea0146102085780634f8e2fdf1461027f578063661884631461029157806370a08231146102c457806395d89b41146102f2578063a9059cbb14610382578063d73dd623146103b5578063dd62ed3e146103e8575bfe5b34156100cc57fe5b6100d461041c565b60408051602080825283518183015283519192839290830191850190808383821561011a575b80518252602083111561011a57601f1990920191602091820191016100fa565b505050905090810190601f1680156101465780820380516001836020036101000a031916815260200191505b509250505060405180910390f35b341561015c57fe5b610173600160a060020a0360043516602435610453565b604080519115158252519081900360200190f35b341561018f57fe5b6101976104a1565b60408051918252519081900360200190f35b34156101b157fe5b610173600160a060020a03600435811690602435166044356104b1565b604080519115158252519081900360200190f35b34156101ea57fe5b6101f2610501565b6040805160ff9092168252519081900360200190f35b341561021057fe5b604080516020600460443581810135601f8101849004840285018401909552848452610173948235600160a060020a031694602480359560649492939190920191819084018382808284375094965061050695505050505050565b604080519115158252519081900360200190f35b341561028757fe5b61028f610556565b005b341561029957fe5b610173600160a060020a0360043516602435610580565b604080519115158252519081900360200190f35b34156102cc57fe5b610197600160a060020a036004351661067b565b60408051918252519081900360200190f35b34156102fa57fe5b6100d461069a565b60408051602080825283518183015283519192839290830191850190808383821561011a575b80518252602083111561011a57601f1990920191602091820191016100fa565b505050905090810190601f1680156101465780820380516001836020036101000a031916815260200191505b509250505060405180910390f35b341561038a57fe5b610173600160a060020a03600435166024356106d1565b604080519115158252519081900360200190f35b34156103bd57fe5b610173600160a060020a036004351660243561071f565b604080519115158252519081900360200190f35b34156103f057fe5b610197600160a060020a03600435811690602435166107c2565b60408051918252519081900360200190f35b60408051808201909152600f81527f436861696e4c696e6b20546f6b656e0000000000000000000000000000000000602082015281565b600082600160a060020a03811615801590610480575030600160a060020a031681600160a060020a031614155b151561048c5760006000fd5b61049684846107ef565b91505b5b5092915050565b6b033b2e3c9fd0803ce800000081565b600082600160a060020a038116158015906104de575030600160a060020a031681600160a060020a031614155b15156104ea5760006000fd5b6104f585858561085a565b91505b5b509392505050565b601281565b600083600160a060020a03811615801590610533575030600160a060020a031681600160a060020a031614155b151561053f5760006000fd5b6104f585858561096c565b91505b5b509392505050565b600160a060020a03331660009081526001602052604090206b033b2e3c9fd0803ce800000090555b565b600160a060020a033381166000908152600260209081526040808320938616835292905290812054808311156105dd57600160a060020a033381166000908152600260209081526040808320938816835292905290812055610614565b6105ed818463ffffffff610a6016565b600160a060020a033381166000908152600260209081526040808320938916835292905220555b600160a060020a0333811660008181526002602090815260408083209489168084529482529182902054825190815291517f8c5be1e5ebec7d5bd14f71427d1e84f3dd0314c0f7b2291e5b200ac8c7c3b9259281900390910190a3600191505b5092915050565b600160a060020a0381166000908152600160205260409020545b919050565b60408051808201909152600481527f4c494e4b00000000000000000000000000000000000000000000000000000000602082015281565b600082600160a060020a038116158015906106fe575030600160a060020a031681600160a060020a031614155b151561070a5760006000fd5b6104968484610a77565b91505b5b5092915050565b600160a060020a033381166000908152600260209081526040808320938616835292905290812054610757908363ffffffff610b3716565b600160a060020a0333811660008181526002602090815260408083209489168084529482529182902085905581519485529051929391927f8c5be1e5ebec7d5bd14f71427d1e84f3dd0314c0f7b2291e5b200ac8c7c3b9259281900390910190a35060015b92915050565b600160a060020a038083166000908152600260209081526040808320938516835292905220545b92915050565b600160a060020a03338116600081815260026020908152604080832094871680845294825280832086905580518681529051929493927f8c5be1e5ebec7d5bd14f71427d1e84f3dd0314c0f7b2291e5b200ac8c7c3b925929181900390910190a35060015b92915050565b600160a060020a03808416600081815260026020908152604080832033909516835293815283822054928252600190529182205461089e908463ffffffff610a6016565b600160a060020a0380871660009081526001602052604080822093909355908616815220546108d3908463ffffffff610b3716565b600160a060020a0385166000908152600160205260409020556108fc818463ffffffff610a6016565b600160a060020a038087166000818152600260209081526040808320338616845282529182902094909455805187815290519288169391927fddf252ad1be2c89b69c2b068fc378daa952ba7f163c4a11628f55a4df523b3ef929181900390910190a3600191505b509392505050565b60006109788484610a77565b5083600160a060020a031633600160a060020a03167fe19260aff97b920c7df27010903aeb9c8d2be5d310a2c67824cf3f15396e4c1685856040518083815260200180602001828103825283818151815260200191508051906020019080838360008314610a01575b805182526020831115610a0157601f1990920191602091820191016109e1565b505050905090810190601f168015610a2d5780820380516001836020036101000a031916815260200191505b50935050505060405180910390a3610a4484610b51565b15610a5457610a54848484610b60565b5b5060015b9392505050565b600082821115610a6c57fe5b508082035b92915050565b600160a060020a033316600090815260016020526040812054610aa0908363ffffffff610a6016565b600160a060020a033381166000908152600160205260408082209390935590851681522054610ad5908363ffffffff610b3716565b600160a060020a038085166000818152600160209081526040918290209490945580518681529051919333909316927fddf252ad1be2c89b69c2b068fc378daa952ba7f163c4a11628f55a4df523b3ef92918290030190a35060015b92915050565b600082820183811015610b4657fe5b8091505b5092915050565b6000813b908111905b50919050565b600083905080600160a060020a031663a4c0ed363385856040518463ffffffff167c01000000000000000000000000000000000000000000000000000000000281526004018084600160a060020a0316600160a060020a0316815260200183815260200180602001828103825283818151815260200191508051906020019080838360008314610c0b575b805182526020831115610c0b57601f199092019160209182019101610beb565b505050905090810190601f168015610c375780820380516001836020036101000a031916815260200191505b50945050505050600060405180830381600087803b1515610c5457fe5b6102c65a03f11515610c6257fe5b5050505b505050505600a165627a7a72305820900a807d1c162b2c7f0be9f59b8120e63b0b0fd26647826709c9e48fe46822fa0029",
  "linkReferences": {},
  "deployedLinkReferences": {}
}