{
  "_format": "hh-sol-artifact-1",
  "contractName": "PriceOracle",
  "sourceName": "contracts/PriceOracle.sol",
  "abi": [
    {
      "inputs": [],
      "name": "colPriceToWei",
      "outputs": [],
      "stateMutability": "nonpayable",
      "type": "function"
    },
    {
      "inputs": [],
      "name": "dataFeed",
      "outputs": [
        {
          "internalType": "address",
          "name": "",
          "type": "address"
        }
      ],
      "stateMutability": "view",
      "type": "function"
    },
    {
      "inputs": [],
      "name": "rawColPrice",
      "outputs": [
        {
          "internalType": "uint256",
          "name": "",
          "type": "uint256"
        }
      ],
      "stateMutability": "view",
      "type": "function"
    },
    {
      "inputs": [
        {
          "internalType": "address",
          "name": "_contractAddress",
          "type": "address"
        }
      ],
      "name": "setDataFeedAddress",
      "outputs": [],
      "stateMutability": "nonpayable",
      "type": "function"
    },
    {
      "inputs": [],
      "name": "unstableColPrice",
      "outputs": [
        {
          "internalType": "uint256",
          "name": "",
          "type": "uint256"
        }
      ],
      "stateMutability": "view",
      "type": "function"
    }
  ],
  "bytecode": "0x6080604052348015600f57600080fd5b506103008061001f6000396000f3fe608060405234801561001057600080fd5b50600436106100575760003560e01c806326ba78981461005c5780635e6a4fb01461009857806397b85420146100b45780639e42ff90146100bc578063f630ba51146100e7575b600080fd5b61009661006a3660046101fe565b600280546001600160a01b039092166001600160a01b0319928316811790915560008054909216179055565b005b6100a160015481565b6040519081526020015b60405180910390f35b6100966100ef565b6002546100cf906001600160a01b031681565b6040516001600160a01b0390911681526020016100ab565b6100a1610185565b60008060009054906101000a90046001600160a01b03166001600160a01b031663feaf968c6040518163ffffffff1660e01b815260040160a060405180830381865afa158015610143573d6000803e3d6000fd5b505050506040513d601f19601f82011682018060405250810190610167919061024d565b5050509150506000816402540be400610180919061029f565b505050565b6000805460408051633fabe5a360e21b8152905183926001600160a01b03169163feaf968c9160048083019260a09291908290030181865afa1580156101cf573d6000803e3d6000fd5b505050506040513d601f19601f820116820180604052508101906101f3919061024d565b509195945050505050565b60006020828403121561021057600080fd5b81356001600160a01b038116811461022757600080fd5b9392505050565b805169ffffffffffffffffffff8116811461024857600080fd5b919050565b600080600080600060a0868803121561026557600080fd5b61026e8661022e565b602087015160408801516060890151929750909550935091506102936080870161022e565b90509295509295909350565b80820281158282048414176102c457634e487b7160e01b600052601160045260246000fd5b9291505056fea2646970667358221220dd02d128338b82ee2312ca3306a8febce9f66e7d55cb3e1b8b58a4d3fdb611a264736f6c634300081b0033",
  "linkReferences": {},
  "deployedLinkReferences": {}
}