{
  "contracts/link/MLink.sol": {
    "MLink": {
      "abi": [
        {
          "constant": true,
          "inputs": [],
          "name": "name",
          "outputs": [
            {
              "name": "",
              "type": "string"
            }
          ],
          "payable": false,
          "type": "function"
        },
        {
          "constant": false,
          "inputs": [
            {
              "name": "_spender",
              "type": "address"
            },
            {
              "name": "_value",
              "type": "uint256"
            }
          ],
          "name": "approve",
          "outputs": [
            {
              "name": "",
              "type": "bool"
            }
          ],
          "payable": false,
          "type": "function"
        },
        {
          "constant": true,
          "inputs": [],
          "name": "totalSupply",
          "outputs": [
            {
              "name": "",
              "type": "uint256"
            }
          ],
          "payable": false,
          "type": "function"
        },
        {
          "constant": false,
          "inputs": [
            {
              "name": "_from",
              "type": "address"
            },
            {
              "name": "_to",
              "type": "address"
            },
            {
              "name": "_value",
              "type": "uint256"
            }
          ],
          "name": "transferFrom",
          "outputs": [
            {
              "name": "",
              "type": "bool"
            }
          ],
          "payable": false,
          "type": "function"
        },
        {
          "constant": true,
          "inputs": [],
          "name": "decimals",
          "outputs": [
            {
              "name": "",
              "type": "uint8"
            }
          ],
          "payable": false,
          "type": "function"
        },
        {
          "constant": false,
          "inputs": [
            {
              "name": "_to",
              "type": "address"
            },
            {
              "name": "_value",
              "type": "uint256"
            },
            {
              "name": "_data",
              "type": "bytes"
            }
          ],
          "name": "transferAndCall",
          "outputs": [
            {
              "name": "success",
              "type": "bool"
            }
          ],
          "payable": false,
          "type": "function"
        },
        {
          "constant": false,
          "inputs": [],
          "name": "LinkToken",
          "outputs": [],
          "payable": false,
          "type": "function"
        },
        {
          "constant": false,
          "inputs": [
            {
              "name": "_spender",
              "type": "address"
            },
            {
              "name": "_subtractedValue",
              "type": "uint256"
            }
          ],
          "name": "decreaseApproval",
          "outputs": [
            {
              "name": "success",
              "type": "bool"
            }
          ],
          "payable": false,
          "type": "function"
        },
        {
          "constant": true,
          "inputs": [
            {
              "name": "_owner",
              "type": "address"
            }
          ],
          "name": "balanceOf",
          "outputs": [
            {
              "name": "balance",
              "type": "uint256"
            }
          ],
          "payable": false,
          "type": "function"
        },
        {
          "constant": true,
          "inputs": [],
          "name": "symbol",
          "outputs": [
            {
              "name": "",
              "type": "string"
            }
          ],
          "payable": false,
          "type": "function"
        },
        {
          "constant": false,
          "inputs": [
            {
              "name": "_to",
              "type": "address"
            },
            {
              "name": "_value",
              "type": "uint256"
            }
          ],
          "name": "transfer",
          "outputs": [
            {
              "name": "success",
              "type": "bool"
            }
          ],
          "payable": false,
          "type": "function"
        },
        {
          "constant": false,
          "inputs": [
            {
              "name": "_spender",
              "type": "address"
            },
            {
              "name": "_addedValue",
              "type": "uint256"
            }
          ],
          "name": "increaseApproval",
          "outputs": [
            {
              "name": "success",
              "type": "bool"
            }
          ],
          "payable": false,
          "type": "function"
        },
        {
          "constant": true,
          "inputs": [
            {
              "name": "_owner",
              "type": "address"
            },
            {
              "name": "_spender",
              "type": "address"
            }
          ],
          "name": "allowance",
          "outputs": [
            {
              "name": "remaining",
              "type": "uint256"
            }
          ],
          "payable": false,
          "type": "function"
        },
        {
          "anonymous": false,
          "inputs": [
            {
              "indexed": true,
              "name": "from",
              "type": "address"
            },
            {
              "indexed": true,
              "name": "to",
              "type": "address"
            },
            {
              "indexed": false,
              "name": "value",
              "type": "uint256"
            },
            {
              "indexed": false,
              "name": "data",
              "type": "bytes"
            }
          ],
          "name": "Transfer",
          "type": "event"
        },
        {
          "anonymous": false,
          "inputs": [
            {
              "indexed": true,
              "name": "owner",
              "type": "address"
            },
            {
              "indexed": true,
              "name": "spender",
              "type": "address"
            },
            {
              "indexed": false,
              "name": "value",
              "type": "uint256"
            }
          ],
          "name": "Approval",
          "type": "event"
        }
      ],
      "devdoc": {
        "methods": {
          "allowance(address,address)": {
            "details": "Function to check the amount of tokens that an owner allowed to a spender.",
            "params": {
              "_owner": "address The address which owns the funds.",
              "_spender": "address The address which will spend the funds."
            },
            "return": "A uint256 specifying the amount of tokens still available for the spender."
          },
          "approve(address,uint256)": {
            "details": "Approve the passed address to spend the specified amount of tokens on behalf of msg.sender.",
            "params": {
              "_spender": "The address which will spend the funds.",
              "_value": "The amount of tokens to be spent."
            }
          },
          "balanceOf(address)": {
            "details": "Gets the balance of the specified address.",
            "params": {
              "_owner": "The address to query the the balance of. "
            },
            "return": "An uint256 representing the amount owned by the passed address."
          },
          "transfer(address,uint256)": {
            "details": "transfer token to a specified address.",
            "params": {
              "_to": "The address to transfer to.",
              "_value": "The amount to be transferred."
            }
          },
          "transferAndCall(address,uint256,bytes)": {
            "details": "transfer token to a specified address with additional data if the recipient is a contract.",
            "params": {
              "_data": "The extra data to be passed to the receiving contract.",
              "_to": "The address to transfer to.",
              "_value": "The amount to be transferred."
            }
          },
          "transferFrom(address,address,uint256)": {
            "details": "Transfer tokens from one address to another",
            "params": {
              "_from": "address The address which you want to send tokens from",
              "_to": "address The address which you want to transfer to",
              "_value": "uint256 the amount of tokens to be transferred"
            }
          }
        }
      },
      "evm": {
        "assembly": "    /* \"contracts/link/MLink.sol\":97:2177  contract MLink is linkStandardToken, ERC677Token {... */\n  mstore(0x40, 0x60)\n  jumpi(tag_1, iszero(callvalue))\n  invalid\ntag_1:\ntag_2:\n  dataSize(sub_0)\n  dup1\n  dataOffset(sub_0)\n  0x0\n  codecopy\n  0x0\n  return\nstop\n\nsub_0: assembly {\n        /* \"contracts/link/MLink.sol\":97:2177  contract MLink is linkStandardToken, ERC677Token {... */\n      mstore(0x40, 0x60)\n      jumpi(tag_1, iszero(calldatasize))\n      and(div(calldataload(0x0), 0x100000000000000000000000000000000000000000000000000000000), 0xffffffff)\n      0x6fdde03\n      dup2\n      eq\n      tag_2\n      jumpi\n      dup1\n      0x95ea7b3\n      eq\n      tag_3\n      jumpi\n      dup1\n      0x18160ddd\n      eq\n      tag_4\n      jumpi\n      dup1\n      0x23b872dd\n      eq\n      tag_5\n      jumpi\n      dup1\n      0x313ce567\n      eq\n      tag_6\n      jumpi\n      dup1\n      0x4000aea0\n      eq\n      tag_7\n      jumpi\n      dup1\n      0x4f8e2fdf\n      eq\n      tag_8\n      jumpi\n      dup1\n      0x66188463\n      eq\n      tag_9\n      jumpi\n      dup1\n      0x70a08231\n      eq\n      tag_10\n      jumpi\n      dup1\n      0x95d89b41\n      eq\n      tag_11\n      jumpi\n      dup1\n      0xa9059cbb\n      eq\n      tag_12\n      jumpi\n      dup1\n      0xd73dd623\n      eq\n      tag_13\n      jumpi\n      dup1\n      0xdd62ed3e\n      eq\n      tag_14\n      jumpi\n    tag_1:\n      invalid\n        /* \"contracts/link/MLink.sol\":196:243  string public constant name = 'ChainLink Token' */\n    tag_2:\n      jumpi(tag_15, iszero(callvalue))\n      invalid\n    tag_15:\n      tag_16\n      jump(tag_17)\n    tag_16:\n      0x40\n      dup1\n      mload\n      0x20\n      dup1\n      dup3\n      mstore\n      dup4\n      mload\n      dup2\n      dup4\n      add\n      mstore\n      dup4\n      mload\n      swap2\n      swap3\n      dup4\n      swap3\n      swap1\n      dup4\n      add\n      swap2\n      dup6\n      add\n      swap1\n      dup1\n      dup4\n      dup4\n        /* \"--CODEGEN--\":18:20   */\n      dup3\n      iszero\n        /* \"--CODEGEN--\":13:16   */\n      tag_18\n        /* \"--CODEGEN--\":7:12   */\n      jumpi\n        /* \"--CODEGEN--\":32:37   */\n    tag_19:\n        /* \"--CODEGEN--\":59:62   */\n      dup1\n        /* \"--CODEGEN--\":53:58   */\n      mload\n        /* \"--CODEGEN--\":48:51   */\n      dup3\n        /* \"--CODEGEN--\":41:47   */\n      mstore\n        /* \"--CODEGEN--\":93:95   */\n      0x20\n        /* \"--CODEGEN--\":88:91   */\n      dup4\n        /* \"--CODEGEN--\":85:87   */\n      gt\n        /* \"--CODEGEN--\":78:84   */\n      iszero\n        /* \"--CODEGEN--\":73:76   */\n      tag_18\n        /* \"--CODEGEN--\":67:72   */\n      jumpi\n      not(0x1f)\n        /* \"--CODEGEN--\":152:155   */\n      swap1\n      swap3\n      add\n      swap2\n        /* \"--CODEGEN--\":117:119   */\n      0x20\n        /* \"--CODEGEN--\":108:111   */\n      swap2\n      dup3\n      add\n      swap2\n        /* \"--CODEGEN--\":130:133   */\n      add\n        /* \"--CODEGEN--\":172:177   */\n      tag_19\n        /* \"--CODEGEN--\":167:171   */\n      jump\n        /* \"--CODEGEN--\":181:184   */\n    tag_18:\n        /* \"--CODEGEN--\":3:189   */\n      pop\n      pop\n      pop\n      swap1\n      pop\n      swap1\n      dup2\n      add\n      swap1\n      0x1f\n      and\n      dup1\n      iszero\n      tag_20\n      jumpi\n      dup1\n      dup3\n      sub\n      dup1\n      mload\n      0x1\n      dup4\n      0x20\n      sub\n      0x100\n      exp\n      sub\n      not\n      and\n      dup2\n      mstore\n      0x20\n      add\n      swap2\n      pop\n    tag_20:\n      pop\n      swap3\n      pop\n      pop\n      pop\n      mload(0x40)\n      dup1\n      swap2\n      sub\n      swap1\n      return\n        /* \"contracts/link/MLink.sol\":1412:1574  function approve(address _spender, uint256 _value)... */\n    tag_3:\n      jumpi(tag_21, iszero(callvalue))\n      invalid\n    tag_21:\n      tag_22\n      and(calldataload(0x4), sub(exp(0x2, 0xa0), 0x1))\n      calldataload(0x24)\n      jump(tag_23)\n    tag_22:\n      0x40\n      dup1\n      mload\n      swap2\n      iszero\n      iszero\n      dup3\n      mstore\n      mload\n      swap1\n      dup2\n      swap1\n      sub\n      0x20\n      add\n      swap1\n      return\n        /* \"contracts/link/MLink.sol\":151:192  uint public constant totalSupply = 10**27 */\n    tag_4:\n      jumpi(tag_24, iszero(callvalue))\n      invalid\n    tag_24:\n      tag_25\n      jump(tag_26)\n    tag_25:\n      0x40\n      dup1\n      mload\n      swap2\n      dup3\n      mstore\n      mload\n      swap1\n      dup2\n      swap1\n      sub\n      0x20\n      add\n      swap1\n      return\n        /* \"contracts/link/MLink.sol\":1849:2027  function transferFrom(address _from, address _to, uint256 _value)... */\n    tag_5:\n      jumpi(tag_27, iszero(callvalue))\n      invalid\n    tag_27:\n      tag_22\n      sub(exp(0x2, 0xa0), 0x1)\n      calldataload(0x4)\n      dup2\n      and\n      swap1\n      calldataload(0x24)\n      and\n      calldataload(0x44)\n      jump(tag_29)\n    tag_28:\n      0x40\n      dup1\n      mload\n      swap2\n      iszero\n      iszero\n      dup3\n      mstore\n      mload\n      swap1\n      dup2\n      swap1\n      sub\n      0x20\n      add\n      swap1\n      return\n        /* \"contracts/link/MLink.sol\":247:282  uint8 public constant decimals = 18 */\n    tag_6:\n      jumpi(tag_30, iszero(callvalue))\n      invalid\n    tag_30:\n      tag_31\n      jump(tag_32)\n    tag_31:\n      0x40\n      dup1\n      mload\n      0xff\n      swap1\n      swap3\n      and\n      dup3\n      mstore\n      mload\n      swap1\n      dup2\n      swap1\n      sub\n      0x20\n      add\n      swap1\n      return\n        /* \"contracts/link/MLink.sol\":686:873  function transferAndCall(address _to, uint _value, bytes _data)... */\n    tag_7:\n      jumpi(tag_33, iszero(callvalue))\n      invalid\n    tag_33:\n      0x40\n      dup1\n      mload\n      0x20\n      0x4\n      calldataload(0x44)\n      dup2\n      dup2\n      add\n      calldataload\n      0x1f\n      dup2\n      add\n      dup5\n      swap1\n      div\n      dup5\n      mul\n      dup6\n      add\n      dup5\n      add\n      swap1\n      swap6\n      mstore\n      dup5\n      dup5\n      mstore\n      tag_22\n      swap5\n      dup3\n      calldataload\n      sub(exp(0x2, 0xa0), 0x1)\n      and\n      swap5\n      0x24\n      dup1\n      calldataload\n      swap6\n      0x64\n      swap5\n      swap3\n      swap4\n      swap2\n      swap1\n      swap3\n      add\n      swap2\n      dup2\n      swap1\n      dup5\n      add\n      dup4\n      dup3\n      dup1\n      dup3\n      dup5\n      calldatacopy\n      pop\n      swap5\n      swap7\n      pop\n      tag_35\n      swap6\n      pop\n      pop\n      pop\n      pop\n      pop\n      pop\n      jump\n    tag_34:\n      0x40\n      dup1\n      mload\n      swap2\n      iszero\n      iszero\n      dup3\n      mstore\n      mload\n      swap1\n      dup2\n      swap1\n      sub\n      0x20\n      add\n      swap1\n      return\n        /* \"contracts/link/MLink.sol\":329:408  function LinkToken()... */\n    tag_8:\n      jumpi(tag_36, iszero(callvalue))\n      invalid\n    tag_36:\n      tag_37\n      jump(tag_38)\n    tag_37:\n      stop\n        /* \"contracts/link/token/linkStandardToken.sol\":2609:3014  function decreaseApproval (address _spender, uint _subtractedValue) ... */\n    tag_9:\n      jumpi(tag_39, iszero(callvalue))\n      invalid\n    tag_39:\n      tag_22\n      and(calldataload(0x4), sub(exp(0x2, 0xa0), 0x1))\n      calldataload(0x24)\n      jump(tag_41)\n    tag_40:\n      0x40\n      dup1\n      mload\n      swap2\n      iszero\n      iszero\n      dup3\n      mstore\n      mload\n      swap1\n      dup2\n      swap1\n      sub\n      0x20\n      add\n      swap1\n      return\n        /* \"contracts/link/token/linkBasicToken.sol\":892:996  function balanceOf(address _owner) constant returns (uint256 balance) {... */\n    tag_10:\n      jumpi(tag_42, iszero(callvalue))\n      invalid\n    tag_42:\n      tag_25\n      and(calldataload(0x4), sub(exp(0x2, 0xa0), 0x1))\n      jump(tag_44)\n    tag_43:\n      0x40\n      dup1\n      mload\n      swap2\n      dup3\n      mstore\n      mload\n      swap1\n      dup2\n      swap1\n      sub\n      0x20\n      add\n      swap1\n      return\n        /* \"contracts/link/MLink.sol\":286:324  string public constant symbol = 'LINK' */\n    tag_11:\n      jumpi(tag_45, iszero(callvalue))\n      invalid\n    tag_45:\n      tag_16\n      jump(tag_47)\n    tag_46:\n      0x40\n      dup1\n      mload\n      0x20\n      dup1\n      dup3\n      mstore\n      dup4\n      mload\n      dup2\n      dup4\n      add\n      mstore\n      dup4\n      mload\n      swap2\n      swap3\n      dup4\n      swap3\n      swap1\n      dup4\n      add\n      swap2\n      dup6\n      add\n      swap1\n      dup1\n      dup4\n      dup4\n        /* \"--CODEGEN--\":18:20   */\n      dup3\n      iszero\n        /* \"--CODEGEN--\":13:16   */\n      tag_18\n        /* \"--CODEGEN--\":7:12   */\n      jumpi\n        /* \"--CODEGEN--\":32:37   */\n    tag_49:\n        /* \"--CODEGEN--\":59:62   */\n      dup1\n        /* \"--CODEGEN--\":53:58   */\n      mload\n        /* \"--CODEGEN--\":48:51   */\n      dup3\n        /* \"--CODEGEN--\":41:47   */\n      mstore\n        /* \"--CODEGEN--\":93:95   */\n      0x20\n        /* \"--CODEGEN--\":88:91   */\n      dup4\n        /* \"--CODEGEN--\":85:87   */\n      gt\n        /* \"--CODEGEN--\":78:84   */\n      iszero\n        /* \"--CODEGEN--\":73:76   */\n      tag_18\n        /* \"--CODEGEN--\":67:72   */\n      jumpi\n      not(0x1f)\n        /* \"--CODEGEN--\":152:155   */\n      swap1\n      swap3\n      add\n      swap2\n        /* \"--CODEGEN--\":117:119   */\n      0x20\n        /* \"--CODEGEN--\":108:111   */\n      swap2\n      dup3\n      add\n      swap2\n        /* \"--CODEGEN--\":130:133   */\n      add\n        /* \"--CODEGEN--\":172:177   */\n      tag_19\n        /* \"--CODEGEN--\":167:171   */\n      jump\n        /* \"--CODEGEN--\":181:184   */\n    tag_48:\n        /* \"--CODEGEN--\":3:189   */\n      pop\n      pop\n      pop\n      swap1\n      pop\n      swap1\n      dup2\n      add\n      swap1\n      0x1f\n      and\n      dup1\n      iszero\n      tag_20\n      jumpi\n      dup1\n      dup3\n      sub\n      dup1\n      mload\n      0x1\n      dup4\n      0x20\n      sub\n      0x100\n      exp\n      sub\n      not\n      and\n      dup2\n      mstore\n      0x20\n      add\n      swap2\n      pop\n    tag_50:\n      pop\n      swap3\n      pop\n      pop\n      pop\n      mload(0x40)\n      dup1\n      swap2\n      sub\n      swap1\n      return\n        /* \"contracts/link/MLink.sol\":1027:1180  function transfer(address _to, uint _value)... */\n    tag_12:\n      jumpi(tag_51, iszero(callvalue))\n      invalid\n    tag_51:\n      tag_22\n      and(calldataload(0x4), sub(exp(0x2, 0xa0), 0x1))\n      calldataload(0x24)\n      jump(tag_53)\n    tag_52:\n      0x40\n      dup1\n      mload\n      swap2\n      iszero\n      iszero\n      dup3\n      mstore\n      mload\n      swap1\n      dup2\n      swap1\n      sub\n      0x20\n      add\n      swap1\n      return\n        /* \"contracts/link/token/linkStandardToken.sol\":2341:2605  function increaseApproval (address _spender, uint _addedValue) ... */\n    tag_13:\n      jumpi(tag_54, iszero(callvalue))\n      invalid\n    tag_54:\n      tag_22\n      and(calldataload(0x4), sub(exp(0x2, 0xa0), 0x1))\n      calldataload(0x24)\n      jump(tag_56)\n    tag_55:\n      0x40\n      dup1\n      mload\n      swap2\n      iszero\n      iszero\n      dup3\n      mstore\n      mload\n      swap1\n      dup2\n      swap1\n      sub\n      0x20\n      add\n      swap1\n      return\n        /* \"contracts/link/token/linkStandardToken.sol\":1964:2097  function allowance(address _owner, address _spender) constant returns (uint256 remaining) {... */\n    tag_14:\n      jumpi(tag_57, iszero(callvalue))\n      invalid\n    tag_57:\n      tag_25\n      sub(exp(0x2, 0xa0), 0x1)\n      calldataload(0x4)\n      dup2\n      and\n      swap1\n      calldataload(0x24)\n      and\n      jump(tag_59)\n    tag_58:\n      0x40\n      dup1\n      mload\n      swap2\n      dup3\n      mstore\n      mload\n      swap1\n      dup2\n      swap1\n      sub\n      0x20\n      add\n      swap1\n      return\n        /* \"contracts/link/MLink.sol\":196:243  string public constant name = 'ChainLink Token' */\n    tag_17:\n      0x40\n      dup1\n      mload\n      dup1\n      dup3\n      add\n      swap1\n      swap2\n      mstore\n      0xf\n      dup2\n      mstore\n      0x436861696e4c696e6b20546f6b656e0000000000000000000000000000000000\n      0x20\n      dup3\n      add\n      mstore\n      dup2\n      jump\t// out\n        /* \"contracts/link/MLink.sol\":1412:1574  function approve(address _spender, uint256 _value)... */\n    tag_23:\n        /* \"contracts/link/MLink.sol\":1516:1520  bool */\n      0x0\n        /* \"contracts/link/MLink.sol\":1493:1501  _spender */\n      dup3\n      sub(exp(0x2, 0xa0), 0x1)\n        /* \"contracts/link/MLink.sol\":2106:2130  _recipient != address(0) */\n      dup2\n      and\n      iszero\n      dup1\n      iszero\n      swap1\n        /* \"contracts/link/MLink.sol\":2106:2161  _recipient != address(0) && _recipient != address(this) */\n      tag_61\n      jumpi\n      pop\n        /* \"contracts/link/MLink.sol\":2156:2160  this */\n      address\n      sub(exp(0x2, 0xa0), 0x1)\n        /* \"contracts/link/MLink.sol\":2134:2161  _recipient != address(this) */\n      and\n        /* \"contracts/link/MLink.sol\":2134:2144  _recipient */\n      dup2\n      sub(exp(0x2, 0xa0), 0x1)\n        /* \"contracts/link/MLink.sol\":2134:2161  _recipient != address(this) */\n      and\n      eq\n      iszero\n        /* \"contracts/link/MLink.sol\":2106:2161  _recipient != address(0) && _recipient != address(this) */\n    tag_61:\n        /* \"contracts/link/MLink.sol\":2098:2162  require(_recipient != address(0) && _recipient != address(this)) */\n      iszero\n      iszero\n      tag_62\n      jumpi\n      revert(0x0, 0x0)\n    tag_62:\n        /* \"contracts/link/MLink.sol\":1537:1569  super.approve(_spender,  _value) */\n      tag_64\n        /* \"contracts/link/MLink.sol\":1551:1559  _spender */\n      dup5\n        /* \"contracts/link/MLink.sol\":1562:1568  _value */\n      dup5\n        /* \"contracts/link/MLink.sol\":1537:1550  super.approve */\n      tag_65\n        /* \"contracts/link/MLink.sol\":1537:1569  super.approve(_spender,  _value) */\n      jump\t// in\n    tag_64:\n        /* \"contracts/link/MLink.sol\":1530:1569  return super.approve(_spender,  _value) */\n      swap2\n      pop\n        /* \"contracts/link/MLink.sol\":2168:2169  _ */\n    tag_63:\n        /* \"contracts/link/MLink.sol\":1412:1574  function approve(address _spender, uint256 _value)... */\n    tag_60:\n      pop\n      swap3\n      swap2\n      pop\n      pop\n      jump\t// out\n        /* \"contracts/link/MLink.sol\":151:192  uint public constant totalSupply = 10**27 */\n    tag_26:\n        /* \"contracts/link/MLink.sol\":186:192  10**27 */\n      0x33b2e3c9fd0803ce8000000\n        /* \"contracts/link/MLink.sol\":151:192  uint public constant totalSupply = 10**27 */\n      dup2\n      jump\t// out\n        /* \"contracts/link/MLink.sol\":1849:2027  function transferFrom(address _from, address _to, uint256 _value)... */\n    tag_29:\n        /* \"contracts/link/MLink.sol\":1963:1967  bool */\n      0x0\n        /* \"contracts/link/MLink.sol\":1945:1948  _to */\n      dup3\n      sub(exp(0x2, 0xa0), 0x1)\n        /* \"contracts/link/MLink.sol\":2106:2130  _recipient != address(0) */\n      dup2\n      and\n      iszero\n      dup1\n      iszero\n      swap1\n        /* \"contracts/link/MLink.sol\":2106:2161  _recipient != address(0) && _recipient != address(this) */\n      tag_67\n      jumpi\n      pop\n        /* \"contracts/link/MLink.sol\":2156:2160  this */\n      address\n      sub(exp(0x2, 0xa0), 0x1)\n        /* \"contracts/link/MLink.sol\":2134:2161  _recipient != address(this) */\n      and\n        /* \"contracts/link/MLink.sol\":2134:2144  _recipient */\n      dup2\n      sub(exp(0x2, 0xa0), 0x1)\n        /* \"contracts/link/MLink.sol\":2134:2161  _recipient != address(this) */\n      and\n      eq\n      iszero\n        /* \"contracts/link/MLink.sol\":2106:2161  _recipient != address(0) && _recipient != address(this) */\n    tag_67:\n        /* \"contracts/link/MLink.sol\":2098:2162  require(_recipient != address(0) && _recipient != address(this)) */\n      iszero\n      iszero\n      tag_68\n      jumpi\n      revert(0x0, 0x0)\n    tag_68:\n        /* \"contracts/link/MLink.sol\":1984:2022  super.transferFrom(_from, _to, _value) */\n      tag_70\n        /* \"contracts/link/MLink.sol\":2003:2008  _from */\n      dup6\n        /* \"contracts/link/MLink.sol\":2010:2013  _to */\n      dup6\n        /* \"contracts/link/MLink.sol\":2015:2021  _value */\n      dup6\n        /* \"contracts/link/MLink.sol\":1984:2002  super.transferFrom */\n      tag_71\n        /* \"contracts/link/MLink.sol\":1984:2022  super.transferFrom(_from, _to, _value) */\n      jump\t// in\n    tag_70:\n        /* \"contracts/link/MLink.sol\":1977:2022  return super.transferFrom(_from, _to, _value) */\n      swap2\n      pop\n        /* \"contracts/link/MLink.sol\":2168:2169  _ */\n    tag_69:\n        /* \"contracts/link/MLink.sol\":1849:2027  function transferFrom(address _from, address _to, uint256 _value)... */\n    tag_66:\n      pop\n      swap4\n      swap3\n      pop\n      pop\n      pop\n      jump\t// out\n        /* \"contracts/link/MLink.sol\":247:282  uint8 public constant decimals = 18 */\n    tag_32:\n        /* \"contracts/link/MLink.sol\":280:282  18 */\n      0x12\n        /* \"contracts/link/MLink.sol\":247:282  uint8 public constant decimals = 18 */\n      dup2\n      jump\t// out\n        /* \"contracts/link/MLink.sol\":686:873  function transferAndCall(address _to, uint _value, bytes _data)... */\n    tag_35:\n        /* \"contracts/link/MLink.sol\":798:810  bool success */\n      0x0\n        /* \"contracts/link/MLink.sol\":780:783  _to */\n      dup4\n      sub(exp(0x2, 0xa0), 0x1)\n        /* \"contracts/link/MLink.sol\":2106:2130  _recipient != address(0) */\n      dup2\n      and\n      iszero\n      dup1\n      iszero\n      swap1\n        /* \"contracts/link/MLink.sol\":2106:2161  _recipient != address(0) && _recipient != address(this) */\n      tag_73\n      jumpi\n      pop\n        /* \"contracts/link/MLink.sol\":2156:2160  this */\n      address\n      sub(exp(0x2, 0xa0), 0x1)\n        /* \"contracts/link/MLink.sol\":2134:2161  _recipient != address(this) */\n      and\n        /* \"contracts/link/MLink.sol\":2134:2144  _recipient */\n      dup2\n      sub(exp(0x2, 0xa0), 0x1)\n        /* \"contracts/link/MLink.sol\":2134:2161  _recipient != address(this) */\n      and\n      eq\n      iszero\n        /* \"contracts/link/MLink.sol\":2106:2161  _recipient != address(0) && _recipient != address(this) */\n    tag_73:\n        /* \"contracts/link/MLink.sol\":2098:2162  require(_recipient != address(0) && _recipient != address(this)) */\n      iszero\n      iszero\n      tag_74\n      jumpi\n      revert(0x0, 0x0)\n    tag_74:\n        /* \"contracts/link/MLink.sol\":827:868  super.transferAndCall(_to, _value, _data) */\n      tag_70\n        /* \"contracts/link/MLink.sol\":849:852  _to */\n      dup6\n        /* \"contracts/link/MLink.sol\":854:860  _value */\n      dup6\n        /* \"contracts/link/MLink.sol\":862:867  _data */\n      dup6\n        /* \"contracts/link/MLink.sol\":827:848  super.transferAndCall */\n      tag_77\n        /* \"contracts/link/MLink.sol\":827:868  super.transferAndCall(_to, _value, _data) */\n      jump\t// in\n    tag_76:\n        /* \"contracts/link/MLink.sol\":820:868  return super.transferAndCall(_to, _value, _data) */\n      swap2\n      pop\n        /* \"contracts/link/MLink.sol\":2168:2169  _ */\n    tag_75:\n        /* \"contracts/link/MLink.sol\":686:873  function transferAndCall(address _to, uint _value, bytes _data)... */\n    tag_72:\n      pop\n      swap4\n      swap3\n      pop\n      pop\n      pop\n      jump\t// out\n        /* \"contracts/link/MLink.sol\":329:408  function LinkToken()... */\n    tag_38:\n      sub(exp(0x2, 0xa0), 0x1)\n        /* \"contracts/link/MLink.sol\":378:388  msg.sender */\n      caller\n        /* \"contracts/link/MLink.sol\":369:389  balances[msg.sender] */\n      and\n      0x0\n      swap1\n      dup2\n      mstore\n        /* \"contracts/link/MLink.sol\":369:377  balances */\n      0x1\n        /* \"contracts/link/MLink.sol\":369:389  balances[msg.sender] */\n      0x20\n      mstore\n      0x40\n      swap1\n      sha3\n        /* \"contracts/link/MLink.sol\":186:192  10**27 */\n      0x33b2e3c9fd0803ce8000000\n        /* \"contracts/link/MLink.sol\":369:403  balances[msg.sender] = totalSupply */\n      swap1\n      sstore\n        /* \"contracts/link/MLink.sol\":329:408  function LinkToken()... */\n    tag_78:\n      jump\t// out\n        /* \"contracts/link/token/linkStandardToken.sol\":2609:3014  function decreaseApproval (address _spender, uint _subtractedValue) ... */\n    tag_41:\n      sub(exp(0x2, 0xa0), 0x1)\n        /* \"contracts/link/token/linkStandardToken.sol\":2735:2745  msg.sender */\n      caller\n        /* \"contracts/link/token/linkStandardToken.sol\":2727:2746  allowed[msg.sender] */\n      dup2\n      and\n        /* \"contracts/link/token/linkStandardToken.sol\":2691:2703  bool success */\n      0x0\n        /* \"contracts/link/token/linkStandardToken.sol\":2727:2746  allowed[msg.sender] */\n      swap1\n      dup2\n      mstore\n        /* \"contracts/link/token/linkStandardToken.sol\":2727:2734  allowed */\n      0x2\n        /* \"contracts/link/token/linkStandardToken.sol\":2727:2746  allowed[msg.sender] */\n      0x20\n      swap1\n      dup2\n      mstore\n      0x40\n      dup1\n      dup4\n      sha3\n        /* \"contracts/link/token/linkStandardToken.sol\":2727:2756  allowed[msg.sender][_spender] */\n      swap4\n      dup7\n      and\n      dup4\n      mstore\n      swap3\n      swap1\n      mstore\n      swap1\n      dup2\n      sha3\n      sload\n        /* \"contracts/link/token/linkStandardToken.sol\":2766:2793  _subtractedValue > oldValue */\n      dup1\n      dup4\n      gt\n        /* \"contracts/link/token/linkStandardToken.sol\":2762:2926  if (_subtractedValue > oldValue) {... */\n      iszero\n      tag_80\n      jumpi\n      sub(exp(0x2, 0xa0), 0x1)\n        /* \"contracts/link/token/linkStandardToken.sol\":2811:2821  msg.sender */\n      caller\n        /* \"contracts/link/token/linkStandardToken.sol\":2803:2822  allowed[msg.sender] */\n      dup2\n      and\n        /* \"contracts/link/token/linkStandardToken.sol\":2835:2836  0 */\n      0x0\n        /* \"contracts/link/token/linkStandardToken.sol\":2803:2822  allowed[msg.sender] */\n      swap1\n      dup2\n      mstore\n        /* \"contracts/link/token/linkStandardToken.sol\":2803:2810  allowed */\n      0x2\n        /* \"contracts/link/token/linkStandardToken.sol\":2803:2822  allowed[msg.sender] */\n      0x20\n      swap1\n      dup2\n      mstore\n      0x40\n      dup1\n      dup4\n      sha3\n        /* \"contracts/link/token/linkStandardToken.sol\":2803:2832  allowed[msg.sender][_spender] */\n      swap4\n      dup9\n      and\n      dup4\n      mstore\n      swap3\n      swap1\n      mstore\n      swap1\n      dup2\n      sha3\n        /* \"contracts/link/token/linkStandardToken.sol\":2803:2836  allowed[msg.sender][_spender] = 0 */\n      sstore\n        /* \"contracts/link/token/linkStandardToken.sol\":2762:2926  if (_subtractedValue > oldValue) {... */\n      jump(tag_81)\n    tag_80:\n        /* \"contracts/link/token/linkStandardToken.sol\":2889:2919  oldValue.sub(_subtractedValue) */\n      tag_82\n        /* \"contracts/link/token/linkStandardToken.sol\":2889:2897  oldValue */\n      dup2\n        /* \"contracts/link/token/linkStandardToken.sol\":2902:2918  _subtractedValue */\n      dup5\n        /* \"contracts/link/token/linkStandardToken.sol\":2889:2919  oldValue.sub(_subtractedValue) */\n      0xffffffff\n        /* \"contracts/link/token/linkStandardToken.sol\":2889:2901  oldValue.sub */\n      tag_83\n        /* \"contracts/link/token/linkStandardToken.sol\":2889:2919  oldValue.sub(_subtractedValue) */\n      and\n      jump\t// in\n    tag_82:\n      sub(exp(0x2, 0xa0), 0x1)\n        /* \"contracts/link/token/linkStandardToken.sol\":2865:2875  msg.sender */\n      caller\n        /* \"contracts/link/token/linkStandardToken.sol\":2857:2876  allowed[msg.sender] */\n      dup2\n      and\n      0x0\n      swap1\n      dup2\n      mstore\n        /* \"contracts/link/token/linkStandardToken.sol\":2857:2864  allowed */\n      0x2\n        /* \"contracts/link/token/linkStandardToken.sol\":2857:2876  allowed[msg.sender] */\n      0x20\n      swap1\n      dup2\n      mstore\n      0x40\n      dup1\n      dup4\n      sha3\n        /* \"contracts/link/token/linkStandardToken.sol\":2857:2886  allowed[msg.sender][_spender] */\n      swap4\n      dup10\n      and\n      dup4\n      mstore\n      swap3\n      swap1\n      mstore\n      sha3\n        /* \"contracts/link/token/linkStandardToken.sol\":2857:2919  allowed[msg.sender][_spender] = oldValue.sub(_subtractedValue) */\n      sstore\n        /* \"contracts/link/token/linkStandardToken.sol\":2762:2926  if (_subtractedValue > oldValue) {... */\n    tag_81:\n      sub(exp(0x2, 0xa0), 0x1)\n        /* \"contracts/link/token/linkStandardToken.sol\":2940:2950  msg.sender */\n      caller\n        /* \"contracts/link/token/linkStandardToken.sol\":2931:2992  Approval(msg.sender, _spender, allowed[msg.sender][_spender]) */\n      dup2\n      and\n        /* \"contracts/link/token/linkStandardToken.sol\":2962:2981  allowed[msg.sender] */\n      0x0\n      dup2\n      dup2\n      mstore\n        /* \"contracts/link/token/linkStandardToken.sol\":2962:2969  allowed */\n      0x2\n        /* \"contracts/link/token/linkStandardToken.sol\":2962:2981  allowed[msg.sender] */\n      0x20\n      swap1\n      dup2\n      mstore\n      0x40\n      dup1\n      dup4\n      sha3\n        /* \"contracts/link/token/linkStandardToken.sol\":2931:2992  Approval(msg.sender, _spender, allowed[msg.sender][_spender]) */\n      swap5\n      dup10\n      and\n        /* \"contracts/link/token/linkStandardToken.sol\":2962:2991  allowed[msg.sender][_spender] */\n      dup1\n      dup5\n      mstore\n      swap5\n      dup3\n      mstore\n      swap2\n      dup3\n      swap1\n      sha3\n      sload\n        /* \"contracts/link/token/linkStandardToken.sol\":2931:2992  Approval(msg.sender, _spender, allowed[msg.sender][_spender]) */\n      dup3\n      mload\n      swap1\n      dup2\n      mstore\n      swap2\n      mload\n      0x8c5be1e5ebec7d5bd14f71427d1e84f3dd0314c0f7b2291e5b200ac8c7c3b925\n      swap3\n      dup2\n      swap1\n      sub\n      swap1\n      swap2\n      add\n      swap1\n      log3\n        /* \"contracts/link/token/linkStandardToken.sol\":3005:3009  true */\n      0x1\n        /* \"contracts/link/token/linkStandardToken.sol\":2998:3009  return true */\n      swap2\n      pop\n        /* \"contracts/link/token/linkStandardToken.sol\":2609:3014  function decreaseApproval (address _spender, uint _subtractedValue) ... */\n    tag_79:\n      pop\n      swap3\n      swap2\n      pop\n      pop\n      jump\t// out\n        /* \"contracts/link/token/linkBasicToken.sol\":892:996  function balanceOf(address _owner) constant returns (uint256 balance) {... */\n    tag_44:\n      sub(exp(0x2, 0xa0), 0x1)\n        /* \"contracts/link/token/linkBasicToken.sol\":975:991  balances[_owner] */\n      dup2\n      and\n        /* \"contracts/link/token/linkBasicToken.sol\":945:960  uint256 balance */\n      0x0\n        /* \"contracts/link/token/linkBasicToken.sol\":975:991  balances[_owner] */\n      swap1\n      dup2\n      mstore\n        /* \"contracts/link/token/linkBasicToken.sol\":975:983  balances */\n      0x1\n        /* \"contracts/link/token/linkBasicToken.sol\":975:991  balances[_owner] */\n      0x20\n      mstore\n      0x40\n      swap1\n      sha3\n      sload\n        /* \"contracts/link/token/linkBasicToken.sol\":892:996  function balanceOf(address _owner) constant returns (uint256 balance) {... */\n    tag_84:\n      swap2\n      swap1\n      pop\n      jump\t// out\n        /* \"contracts/link/MLink.sol\":286:324  string public constant symbol = 'LINK' */\n    tag_47:\n      0x40\n      dup1\n      mload\n      dup1\n      dup3\n      add\n      swap1\n      swap2\n      mstore\n      0x4\n      dup2\n      mstore\n      0x4c494e4b00000000000000000000000000000000000000000000000000000000\n      0x20\n      dup3\n      add\n      mstore\n      dup2\n      jump\t// out\n        /* \"contracts/link/MLink.sol\":1027:1180  function transfer(address _to, uint _value)... */\n    tag_53:\n        /* \"contracts/link/MLink.sol\":1119:1131  bool success */\n      0x0\n        /* \"contracts/link/MLink.sol\":1101:1104  _to */\n      dup3\n      sub(exp(0x2, 0xa0), 0x1)\n        /* \"contracts/link/MLink.sol\":2106:2130  _recipient != address(0) */\n      dup2\n      and\n      iszero\n      dup1\n      iszero\n      swap1\n        /* \"contracts/link/MLink.sol\":2106:2161  _recipient != address(0) && _recipient != address(this) */\n      tag_86\n      jumpi\n      pop\n        /* \"contracts/link/MLink.sol\":2156:2160  this */\n      address\n      sub(exp(0x2, 0xa0), 0x1)\n        /* \"contracts/link/MLink.sol\":2134:2161  _recipient != address(this) */\n      and\n        /* \"contracts/link/MLink.sol\":2134:2144  _recipient */\n      dup2\n      sub(exp(0x2, 0xa0), 0x1)\n        /* \"contracts/link/MLink.sol\":2134:2161  _recipient != address(this) */\n      and\n      eq\n      iszero\n        /* \"contracts/link/MLink.sol\":2106:2161  _recipient != address(0) && _recipient != address(this) */\n    tag_86:\n        /* \"contracts/link/MLink.sol\":2098:2162  require(_recipient != address(0) && _recipient != address(this)) */\n      iszero\n      iszero\n      tag_87\n      jumpi\n      revert(0x0, 0x0)\n    tag_87:\n        /* \"contracts/link/MLink.sol\":1148:1175  super.transfer(_to, _value) */\n      tag_64\n        /* \"contracts/link/MLink.sol\":1163:1166  _to */\n      dup5\n        /* \"contracts/link/MLink.sol\":1168:1174  _value */\n      dup5\n        /* \"contracts/link/MLink.sol\":1148:1162  super.transfer */\n      tag_90\n        /* \"contracts/link/MLink.sol\":1148:1175  super.transfer(_to, _value) */\n      jump\t// in\n    tag_89:\n        /* \"contracts/link/MLink.sol\":1141:1175  return super.transfer(_to, _value) */\n      swap2\n      pop\n        /* \"contracts/link/MLink.sol\":2168:2169  _ */\n    tag_88:\n        /* \"contracts/link/MLink.sol\":1027:1180  function transfer(address _to, uint _value)... */\n    tag_85:\n      pop\n      swap3\n      swap2\n      pop\n      pop\n      jump\t// out\n        /* \"contracts/link/token/linkStandardToken.sol\":2341:2605  function increaseApproval (address _spender, uint _addedValue) ... */\n    tag_56:\n      sub(exp(0x2, 0xa0), 0x1)\n        /* \"contracts/link/token/linkStandardToken.sol\":2478:2488  msg.sender */\n      caller\n        /* \"contracts/link/token/linkStandardToken.sol\":2470:2489  allowed[msg.sender] */\n      dup2\n      and\n        /* \"contracts/link/token/linkStandardToken.sol\":2418:2430  bool success */\n      0x0\n        /* \"contracts/link/token/linkStandardToken.sol\":2470:2489  allowed[msg.sender] */\n      swap1\n      dup2\n      mstore\n        /* \"contracts/link/token/linkStandardToken.sol\":2470:2477  allowed */\n      0x2\n        /* \"contracts/link/token/linkStandardToken.sol\":2470:2489  allowed[msg.sender] */\n      0x20\n      swap1\n      dup2\n      mstore\n      0x40\n      dup1\n      dup4\n      sha3\n        /* \"contracts/link/token/linkStandardToken.sol\":2470:2499  allowed[msg.sender][_spender] */\n      swap4\n      dup7\n      and\n      dup4\n      mstore\n      swap3\n      swap1\n      mstore\n      swap1\n      dup2\n      sha3\n      sload\n        /* \"contracts/link/token/linkStandardToken.sol\":2470:2516  allowed[msg.sender][_spender].add(_addedValue) */\n      tag_92\n      swap1\n        /* \"contracts/link/token/linkStandardToken.sol\":2504:2515  _addedValue */\n      dup4\n        /* \"contracts/link/token/linkStandardToken.sol\":2470:2516  allowed[msg.sender][_spender].add(_addedValue) */\n      0xffffffff\n        /* \"contracts/link/token/linkStandardToken.sol\":2470:2503  allowed[msg.sender][_spender].add */\n      tag_93\n        /* \"contracts/link/token/linkStandardToken.sol\":2470:2516  allowed[msg.sender][_spender].add(_addedValue) */\n      and\n      jump\t// in\n    tag_92:\n      sub(exp(0x2, 0xa0), 0x1)\n        /* \"contracts/link/token/linkStandardToken.sol\":2446:2456  msg.sender */\n      caller\n        /* \"contracts/link/token/linkStandardToken.sol\":2438:2457  allowed[msg.sender] */\n      dup2\n      and\n      0x0\n      dup2\n      dup2\n      mstore\n        /* \"contracts/link/token/linkStandardToken.sol\":2438:2445  allowed */\n      0x2\n        /* \"contracts/link/token/linkStandardToken.sol\":2438:2457  allowed[msg.sender] */\n      0x20\n      swap1\n      dup2\n      mstore\n      0x40\n      dup1\n      dup4\n      sha3\n        /* \"contracts/link/token/linkStandardToken.sol\":2438:2467  allowed[msg.sender][_spender] */\n      swap5\n      dup10\n      and\n      dup1\n      dup5\n      mstore\n      swap5\n      dup3\n      mstore\n      swap2\n      dup3\n      swap1\n      sha3\n        /* \"contracts/link/token/linkStandardToken.sol\":2438:2516  allowed[msg.sender][_spender] = allowed[msg.sender][_spender].add(_addedValue) */\n      dup6\n      swap1\n      sstore\n        /* \"contracts/link/token/linkStandardToken.sol\":2522:2583  Approval(msg.sender, _spender, allowed[msg.sender][_spender]) */\n      dup2\n      mload\n      swap5\n      dup6\n      mstore\n      swap1\n      mload\n        /* \"contracts/link/token/linkStandardToken.sol\":2438:2467  allowed[msg.sender][_spender] */\n      swap3\n      swap4\n        /* \"contracts/link/token/linkStandardToken.sol\":2438:2457  allowed[msg.sender] */\n      swap2\n      swap3\n        /* \"contracts/link/token/linkStandardToken.sol\":2522:2583  Approval(msg.sender, _spender, allowed[msg.sender][_spender]) */\n      0x8c5be1e5ebec7d5bd14f71427d1e84f3dd0314c0f7b2291e5b200ac8c7c3b925\n      swap3\n      dup2\n      swap1\n      sub\n      swap1\n      swap2\n      add\n      swap1\n      log3\n      pop\n        /* \"contracts/link/token/linkStandardToken.sol\":2596:2600  true */\n      0x1\n        /* \"contracts/link/token/linkStandardToken.sol\":2341:2605  function increaseApproval (address _spender, uint _addedValue) ... */\n    tag_91:\n      swap3\n      swap2\n      pop\n      pop\n      jump\t// out\n        /* \"contracts/link/token/linkStandardToken.sol\":1964:2097  function allowance(address _owner, address _spender) constant returns (uint256 remaining) {... */\n    tag_59:\n      sub(exp(0x2, 0xa0), 0x1)\n        /* \"contracts/link/token/linkStandardToken.sol\":2067:2082  allowed[_owner] */\n      dup1\n      dup4\n      and\n        /* \"contracts/link/token/linkStandardToken.sol\":2035:2052  uint256 remaining */\n      0x0\n        /* \"contracts/link/token/linkStandardToken.sol\":2067:2082  allowed[_owner] */\n      swap1\n      dup2\n      mstore\n        /* \"contracts/link/token/linkStandardToken.sol\":2067:2074  allowed */\n      0x2\n        /* \"contracts/link/token/linkStandardToken.sol\":2067:2082  allowed[_owner] */\n      0x20\n      swap1\n      dup2\n      mstore\n      0x40\n      dup1\n      dup4\n      sha3\n        /* \"contracts/link/token/linkStandardToken.sol\":2067:2092  allowed[_owner][_spender] */\n      swap4\n      dup6\n      and\n      dup4\n      mstore\n      swap3\n      swap1\n      mstore\n      sha3\n      sload\n        /* \"contracts/link/token/linkStandardToken.sol\":1964:2097  function allowance(address _owner, address _spender) constant returns (uint256 remaining) {... */\n    tag_94:\n      swap3\n      swap2\n      pop\n      pop\n      jump\t// out\n        /* \"contracts/link/token/linkStandardToken.sol\":1469:1645  function approve(address _spender, uint256 _value) returns (bool) {... */\n    tag_65:\n      sub(exp(0x2, 0xa0), 0x1)\n        /* \"contracts/link/token/linkStandardToken.sol\":1549:1559  msg.sender */\n      caller\n        /* \"contracts/link/token/linkStandardToken.sol\":1541:1560  allowed[msg.sender] */\n      dup2\n      and\n        /* \"contracts/link/token/linkStandardToken.sol\":1529:1533  bool */\n      0x0\n        /* \"contracts/link/token/linkStandardToken.sol\":1541:1560  allowed[msg.sender] */\n      dup2\n      dup2\n      mstore\n        /* \"contracts/link/token/linkStandardToken.sol\":1541:1548  allowed */\n      0x2\n        /* \"contracts/link/token/linkStandardToken.sol\":1541:1560  allowed[msg.sender] */\n      0x20\n      swap1\n      dup2\n      mstore\n      0x40\n      dup1\n      dup4\n      sha3\n        /* \"contracts/link/token/linkStandardToken.sol\":1541:1570  allowed[msg.sender][_spender] */\n      swap5\n      dup8\n      and\n      dup1\n      dup5\n      mstore\n      swap5\n      dup3\n      mstore\n      dup1\n      dup4\n      sha3\n        /* \"contracts/link/token/linkStandardToken.sol\":1541:1579  allowed[msg.sender][_spender] = _value */\n      dup7\n      swap1\n      sstore\n        /* \"contracts/link/token/linkStandardToken.sol\":1585:1623  Approval(msg.sender, _spender, _value) */\n      dup1\n      mload\n      dup7\n      dup2\n      mstore\n      swap1\n      mload\n        /* \"contracts/link/token/linkStandardToken.sol\":1529:1533  bool */\n      swap3\n      swap5\n        /* \"contracts/link/token/linkStandardToken.sol\":1541:1570  allowed[msg.sender][_spender] */\n      swap4\n        /* \"contracts/link/token/linkStandardToken.sol\":1541:1560  allowed[msg.sender] */\n      swap3\n        /* \"contracts/link/token/linkStandardToken.sol\":1585:1623  Approval(msg.sender, _spender, _value) */\n      0x8c5be1e5ebec7d5bd14f71427d1e84f3dd0314c0f7b2291e5b200ac8c7c3b925\n      swap3\n      swap2\n      dup2\n      swap1\n      sub\n      swap1\n      swap2\n      add\n      swap1\n      log3\n      pop\n        /* \"contracts/link/token/linkStandardToken.sol\":1636:1640  true */\n      0x1\n        /* \"contracts/link/token/linkStandardToken.sol\":1469:1645  function approve(address _spender, uint256 _value) returns (bool) {... */\n    tag_95:\n      swap3\n      swap2\n      pop\n      pop\n      jump\t// out\n        /* \"contracts/link/token/linkStandardToken.sol\":748:1237  function transferFrom(address _from, address _to, uint256 _value) returns (bool) {... */\n    tag_71:\n      sub(exp(0x2, 0xa0), 0x1)\n        /* \"contracts/link/token/linkStandardToken.sol\":852:866  allowed[_from] */\n      dup1\n      dup5\n      and\n        /* \"contracts/link/token/linkStandardToken.sol\":823:827  bool */\n      0x0\n        /* \"contracts/link/token/linkStandardToken.sol\":852:866  allowed[_from] */\n      dup2\n      dup2\n      mstore\n        /* \"contracts/link/token/linkStandardToken.sol\":852:859  allowed */\n      0x2\n        /* \"contracts/link/token/linkStandardToken.sol\":852:866  allowed[_from] */\n      0x20\n      swap1\n      dup2\n      mstore\n      0x40\n      dup1\n      dup4\n      sha3\n        /* \"contracts/link/token/linkStandardToken.sol\":867:877  msg.sender */\n      caller\n        /* \"contracts/link/token/linkStandardToken.sol\":852:878  allowed[_from][msg.sender] */\n      swap1\n      swap6\n      and\n      dup4\n      mstore\n      swap4\n      dup2\n      mstore\n      dup4\n      dup3\n      sha3\n      sload\n        /* \"contracts/link/token/linkStandardToken.sol\":1050:1065  balances[_from] */\n      swap3\n      dup3\n      mstore\n        /* \"contracts/link/token/linkStandardToken.sol\":1050:1058  balances */\n      0x1\n        /* \"contracts/link/token/linkStandardToken.sol\":1050:1065  balances[_from] */\n      swap1\n      mstore\n      swap2\n      dup3\n      sha3\n      sload\n        /* \"contracts/link/token/linkStandardToken.sol\":1050:1077  balances[_from].sub(_value) */\n      tag_97\n      swap1\n        /* \"contracts/link/token/linkStandardToken.sol\":1070:1076  _value */\n      dup5\n        /* \"contracts/link/token/linkStandardToken.sol\":1050:1077  balances[_from].sub(_value) */\n      0xffffffff\n        /* \"contracts/link/token/linkStandardToken.sol\":1050:1069  balances[_from].sub */\n      tag_83\n        /* \"contracts/link/token/linkStandardToken.sol\":1050:1077  balances[_from].sub(_value) */\n      and\n      jump\t// in\n    tag_97:\n      sub(exp(0x2, 0xa0), 0x1)\n        /* \"contracts/link/token/linkStandardToken.sol\":1032:1047  balances[_from] */\n      dup1\n      dup8\n      and\n      0x0\n      swap1\n      dup2\n      mstore\n        /* \"contracts/link/token/linkStandardToken.sol\":1032:1040  balances */\n      0x1\n        /* \"contracts/link/token/linkStandardToken.sol\":1032:1047  balances[_from] */\n      0x20\n      mstore\n      0x40\n      dup1\n      dup3\n      sha3\n        /* \"contracts/link/token/linkStandardToken.sol\":1032:1077  balances[_from] = balances[_from].sub(_value) */\n      swap4\n      swap1\n      swap4\n      sstore\n        /* \"contracts/link/token/linkStandardToken.sol\":1099:1112  balances[_to] */\n      swap1\n      dup7\n      and\n      dup2\n      mstore\n      sha3\n      sload\n        /* \"contracts/link/token/linkStandardToken.sol\":1099:1124  balances[_to].add(_value) */\n      tag_98\n      swap1\n        /* \"contracts/link/token/linkStandardToken.sol\":1117:1123  _value */\n      dup5\n        /* \"contracts/link/token/linkStandardToken.sol\":1099:1124  balances[_to].add(_value) */\n      0xffffffff\n        /* \"contracts/link/token/linkStandardToken.sol\":1099:1116  balances[_to].add */\n      tag_93\n        /* \"contracts/link/token/linkStandardToken.sol\":1099:1124  balances[_to].add(_value) */\n      and\n      jump\t// in\n    tag_98:\n      sub(exp(0x2, 0xa0), 0x1)\n        /* \"contracts/link/token/linkStandardToken.sol\":1083:1096  balances[_to] */\n      dup6\n      and\n      0x0\n      swap1\n      dup2\n      mstore\n        /* \"contracts/link/token/linkStandardToken.sol\":1083:1091  balances */\n      0x1\n        /* \"contracts/link/token/linkStandardToken.sol\":1083:1096  balances[_to] */\n      0x20\n      mstore\n      0x40\n      swap1\n      sha3\n        /* \"contracts/link/token/linkStandardToken.sol\":1083:1124  balances[_to] = balances[_to].add(_value) */\n      sstore\n        /* \"contracts/link/token/linkStandardToken.sol\":1159:1181  _allowance.sub(_value) */\n      tag_99\n        /* \"contracts/link/token/linkStandardToken.sol\":1159:1169  _allowance */\n      dup2\n        /* \"contracts/link/token/linkStandardToken.sol\":1174:1180  _value */\n      dup5\n        /* \"contracts/link/token/linkStandardToken.sol\":1159:1181  _allowance.sub(_value) */\n      0xffffffff\n        /* \"contracts/link/token/linkStandardToken.sol\":1159:1173  _allowance.sub */\n      tag_83\n        /* \"contracts/link/token/linkStandardToken.sol\":1159:1181  _allowance.sub(_value) */\n      and\n      jump\t// in\n    tag_99:\n      sub(exp(0x2, 0xa0), 0x1)\n        /* \"contracts/link/token/linkStandardToken.sol\":1130:1144  allowed[_from] */\n      dup1\n      dup8\n      and\n      0x0\n      dup2\n      dup2\n      mstore\n        /* \"contracts/link/token/linkStandardToken.sol\":1130:1137  allowed */\n      0x2\n        /* \"contracts/link/token/linkStandardToken.sol\":1130:1144  allowed[_from] */\n      0x20\n      swap1\n      dup2\n      mstore\n      0x40\n      dup1\n      dup4\n      sha3\n        /* \"contracts/link/token/linkStandardToken.sol\":1145:1155  msg.sender */\n      caller\n        /* \"contracts/link/token/linkStandardToken.sol\":1130:1156  allowed[_from][msg.sender] */\n      dup7\n      and\n      dup5\n      mstore\n      dup3\n      mstore\n      swap2\n      dup3\n      swap1\n      sha3\n        /* \"contracts/link/token/linkStandardToken.sol\":1130:1181  allowed[_from][msg.sender] = _allowance.sub(_value) */\n      swap5\n      swap1\n      swap5\n      sstore\n        /* \"contracts/link/token/linkStandardToken.sol\":1187:1215  Transfer(_from, _to, _value) */\n      dup1\n      mload\n      dup8\n      dup2\n      mstore\n      swap1\n      mload\n      swap3\n      dup9\n      and\n      swap4\n        /* \"contracts/link/token/linkStandardToken.sol\":1130:1144  allowed[_from] */\n      swap2\n      swap3\n        /* \"contracts/link/token/linkStandardToken.sol\":1187:1215  Transfer(_from, _to, _value) */\n      0xddf252ad1be2c89b69c2b068fc378daa952ba7f163c4a11628f55a4df523b3ef\n      swap3\n      swap2\n      dup2\n      swap1\n      sub\n      swap1\n      swap2\n      add\n      swap1\n      log3\n        /* \"contracts/link/token/linkStandardToken.sol\":1228:1232  true */\n      0x1\n        /* \"contracts/link/token/linkStandardToken.sol\":1221:1232  return true */\n      swap2\n      pop\n        /* \"contracts/link/token/linkStandardToken.sol\":748:1237  function transferFrom(address _from, address _to, uint256 _value) returns (bool) {... */\n    tag_96:\n      pop\n      swap4\n      swap3\n      pop\n      pop\n      pop\n      jump\t// out\n        /* \"contracts/link/ERC677Token.sol\":403:685  function transferAndCall(address _to, uint _value, bytes _data)... */\n    tag_77:\n        /* \"contracts/link/ERC677Token.sol\":491:503  bool success */\n      0x0\n        /* \"contracts/link/ERC677Token.sol\":513:540  super.transfer(_to, _value) */\n      tag_101\n        /* \"contracts/link/ERC677Token.sol\":528:531  _to */\n      dup5\n        /* \"contracts/link/ERC677Token.sol\":533:539  _value */\n      dup5\n        /* \"contracts/link/ERC677Token.sol\":513:527  super.transfer */\n      tag_90\n        /* \"contracts/link/ERC677Token.sol\":513:540  super.transfer(_to, _value) */\n      jump\t// in\n    tag_101:\n      pop\n        /* \"contracts/link/ERC677Token.sol\":567:570  _to */\n      dup4\n      sub(exp(0x2, 0xa0), 0x1)\n        /* \"contracts/link/ERC677Token.sol\":546:586  Transfer(msg.sender, _to, _value, _data) */\n      and\n        /* \"contracts/link/ERC677Token.sol\":555:565  msg.sender */\n      caller\n      sub(exp(0x2, 0xa0), 0x1)\n        /* \"contracts/link/ERC677Token.sol\":546:586  Transfer(msg.sender, _to, _value, _data) */\n      and\n      0xe19260aff97b920c7df27010903aeb9c8d2be5d310a2c67824cf3f15396e4c16\n        /* \"contracts/link/ERC677Token.sol\":572:578  _value */\n      dup6\n        /* \"contracts/link/ERC677Token.sol\":580:585  _data */\n      dup6\n        /* \"contracts/link/ERC677Token.sol\":546:586  Transfer(msg.sender, _to, _value, _data) */\n      mload(0x40)\n      dup1\n      dup4\n      dup2\n      mstore\n      0x20\n      add\n      dup1\n      0x20\n      add\n      dup3\n      dup2\n      sub\n      dup3\n      mstore\n      dup4\n      dup2\n      dup2\n      mload\n      dup2\n      mstore\n      0x20\n      add\n      swap2\n      pop\n      dup1\n      mload\n      swap1\n      0x20\n      add\n      swap1\n      dup1\n      dup4\n      dup4\n        /* \"--CODEGEN--\":26:27   */\n      0x0\n        /* \"--CODEGEN--\":21:24   */\n      dup4\n        /* \"--CODEGEN--\":18:20   */\n      eq\n        /* \"--CODEGEN--\":13:16   */\n      tag_102\n        /* \"--CODEGEN--\":7:12   */\n      jumpi\n        /* \"--CODEGEN--\":32:37   */\n    tag_103:\n        /* \"--CODEGEN--\":59:62   */\n      dup1\n        /* \"--CODEGEN--\":53:58   */\n      mload\n        /* \"--CODEGEN--\":48:51   */\n      dup3\n        /* \"--CODEGEN--\":41:47   */\n      mstore\n        /* \"--CODEGEN--\":93:95   */\n      0x20\n        /* \"--CODEGEN--\":88:91   */\n      dup4\n        /* \"--CODEGEN--\":85:87   */\n      gt\n        /* \"--CODEGEN--\":78:84   */\n      iszero\n        /* \"--CODEGEN--\":73:76   */\n      tag_102\n        /* \"--CODEGEN--\":67:72   */\n      jumpi\n      not(0x1f)\n        /* \"--CODEGEN--\":152:155   */\n      swap1\n      swap3\n      add\n      swap2\n        /* \"--CODEGEN--\":117:119   */\n      0x20\n        /* \"--CODEGEN--\":108:111   */\n      swap2\n      dup3\n      add\n      swap2\n        /* \"--CODEGEN--\":130:133   */\n      add\n        /* \"--CODEGEN--\":172:177   */\n      tag_103\n        /* \"--CODEGEN--\":167:171   */\n      jump\n        /* \"--CODEGEN--\":181:184   */\n    tag_102:\n        /* \"--CODEGEN--\":3:189   */\n      pop\n      pop\n      pop\n      swap1\n      pop\n      swap1\n      dup2\n      add\n      swap1\n      0x1f\n      and\n      dup1\n      iszero\n      tag_104\n      jumpi\n      dup1\n      dup3\n      sub\n      dup1\n      mload\n      0x1\n      dup4\n      0x20\n      sub\n      0x100\n      exp\n      sub\n      not\n      and\n      dup2\n      mstore\n      0x20\n      add\n      swap2\n      pop\n    tag_104:\n      pop\n      swap4\n      pop\n      pop\n      pop\n      pop\n      mload(0x40)\n      dup1\n      swap2\n      sub\n      swap1\n      log3\n        /* \"contracts/link/ERC677Token.sol\":596:611  isContract(_to) */\n      tag_105\n        /* \"contracts/link/ERC677Token.sol\":607:610  _to */\n      dup5\n        /* \"contracts/link/ERC677Token.sol\":596:606  isContract */\n      tag_106\n        /* \"contracts/link/ERC677Token.sol\":596:611  isContract(_to) */\n      jump\t// in\n    tag_105:\n        /* \"contracts/link/ERC677Token.sol\":592:664  if (isContract(_to)) {... */\n      iszero\n      tag_108\n      jumpi\n        /* \"contracts/link/ERC677Token.sol\":621:657  contractFallback(_to, _value, _data) */\n      tag_108\n        /* \"contracts/link/ERC677Token.sol\":638:641  _to */\n      dup5\n        /* \"contracts/link/ERC677Token.sol\":643:649  _value */\n      dup5\n        /* \"contracts/link/ERC677Token.sol\":651:656  _data */\n      dup5\n        /* \"contracts/link/ERC677Token.sol\":621:637  contractFallback */\n      tag_109\n        /* \"contracts/link/ERC677Token.sol\":621:657  contractFallback(_to, _value, _data) */\n      jump\t// in\n    tag_108:\n        /* \"contracts/link/ERC677Token.sol\":592:664  if (isContract(_to)) {... */\n    tag_107:\n      pop\n        /* \"contracts/link/ERC677Token.sol\":676:680  true */\n      0x1\n        /* \"contracts/link/ERC677Token.sol\":403:685  function transferAndCall(address _to, uint _value, bytes _data)... */\n    tag_100:\n      swap4\n      swap3\n      pop\n      pop\n      pop\n      jump\t// out\n        /* \"contracts/link/math/linkSafeMath.sol\":566:680  function sub(uint256 a, uint256 b) internal constant returns (uint256) {... */\n    tag_83:\n        /* \"contracts/link/math/linkSafeMath.sol\":628:635  uint256 */\n      0x0\n        /* \"contracts/link/math/linkSafeMath.sol\":650:656  b <= a */\n      dup3\n      dup3\n      gt\n      iszero\n        /* \"contracts/link/math/linkSafeMath.sol\":643:657  assert(b <= a) */\n      tag_111\n      jumpi\n      invalid\n    tag_111:\n      pop\n        /* \"contracts/link/math/linkSafeMath.sol\":670:675  a - b */\n      dup1\n      dup3\n      sub\n        /* \"contracts/link/math/linkSafeMath.sol\":566:680  function sub(uint256 a, uint256 b) internal constant returns (uint256) {... */\n    tag_110:\n      swap3\n      swap2\n      pop\n      pop\n      jump\t// out\n        /* \"contracts/link/token/linkBasicToken.sol\":458:689  function transfer(address _to, uint256 _value) returns (bool) {... */\n    tag_90:\n      sub(exp(0x2, 0xa0), 0x1)\n        /* \"contracts/link/token/linkBasicToken.sol\":558:568  msg.sender */\n      caller\n        /* \"contracts/link/token/linkBasicToken.sol\":549:569  balances[msg.sender] */\n      and\n        /* \"contracts/link/token/linkBasicToken.sol\":514:518  bool */\n      0x0\n        /* \"contracts/link/token/linkBasicToken.sol\":549:569  balances[msg.sender] */\n      swap1\n      dup2\n      mstore\n        /* \"contracts/link/token/linkBasicToken.sol\":549:557  balances */\n      0x1\n        /* \"contracts/link/token/linkBasicToken.sol\":549:569  balances[msg.sender] */\n      0x20\n      mstore\n      0x40\n      dup2\n      sha3\n      sload\n        /* \"contracts/link/token/linkBasicToken.sol\":549:581  balances[msg.sender].sub(_value) */\n      tag_113\n      swap1\n        /* \"contracts/link/token/linkBasicToken.sol\":574:580  _value */\n      dup4\n        /* \"contracts/link/token/linkBasicToken.sol\":549:581  balances[msg.sender].sub(_value) */\n      0xffffffff\n        /* \"contracts/link/token/linkBasicToken.sol\":549:573  balances[msg.sender].sub */\n      tag_83\n        /* \"contracts/link/token/linkBasicToken.sol\":549:581  balances[msg.sender].sub(_value) */\n      and\n      jump\t// in\n    tag_113:\n      sub(exp(0x2, 0xa0), 0x1)\n        /* \"contracts/link/token/linkBasicToken.sol\":535:545  msg.sender */\n      caller\n        /* \"contracts/link/token/linkBasicToken.sol\":526:546  balances[msg.sender] */\n      dup2\n      and\n      0x0\n      swap1\n      dup2\n      mstore\n        /* \"contracts/link/token/linkBasicToken.sol\":526:534  balances */\n      0x1\n        /* \"contracts/link/token/linkBasicToken.sol\":526:546  balances[msg.sender] */\n      0x20\n      mstore\n      0x40\n      dup1\n      dup3\n      sha3\n        /* \"contracts/link/token/linkBasicToken.sol\":526:581  balances[msg.sender] = balances[msg.sender].sub(_value) */\n      swap4\n      swap1\n      swap4\n      sstore\n        /* \"contracts/link/token/linkBasicToken.sol\":603:616  balances[_to] */\n      swap1\n      dup6\n      and\n      dup2\n      mstore\n      sha3\n      sload\n        /* \"contracts/link/token/linkBasicToken.sol\":603:628  balances[_to].add(_value) */\n      tag_114\n      swap1\n        /* \"contracts/link/token/linkBasicToken.sol\":621:627  _value */\n      dup4\n        /* \"contracts/link/token/linkBasicToken.sol\":603:628  balances[_to].add(_value) */\n      0xffffffff\n        /* \"contracts/link/token/linkBasicToken.sol\":603:620  balances[_to].add */\n      tag_93\n        /* \"contracts/link/token/linkBasicToken.sol\":603:628  balances[_to].add(_value) */\n      and\n      jump\t// in\n    tag_114:\n      sub(exp(0x2, 0xa0), 0x1)\n        /* \"contracts/link/token/linkBasicToken.sol\":587:600  balances[_to] */\n      dup1\n      dup6\n      and\n      0x0\n      dup2\n      dup2\n      mstore\n        /* \"contracts/link/token/linkBasicToken.sol\":587:595  balances */\n      0x1\n        /* \"contracts/link/token/linkBasicToken.sol\":587:600  balances[_to] */\n      0x20\n      swap1\n      dup2\n      mstore\n      0x40\n      swap2\n      dup3\n      swap1\n      sha3\n        /* \"contracts/link/token/linkBasicToken.sol\":587:628  balances[_to] = balances[_to].add(_value) */\n      swap5\n      swap1\n      swap5\n      sstore\n        /* \"contracts/link/token/linkBasicToken.sol\":634:667  Transfer(msg.sender, _to, _value) */\n      dup1\n      mload\n      dup7\n      dup2\n      mstore\n      swap1\n      mload\n        /* \"contracts/link/token/linkBasicToken.sol\":587:600  balances[_to] */\n      swap2\n      swap4\n        /* \"contracts/link/token/linkBasicToken.sol\":643:653  msg.sender */\n      caller\n        /* \"contracts/link/token/linkBasicToken.sol\":634:667  Transfer(msg.sender, _to, _value) */\n      swap1\n      swap4\n      and\n      swap3\n      0xddf252ad1be2c89b69c2b068fc378daa952ba7f163c4a11628f55a4df523b3ef\n      swap3\n      swap2\n      dup3\n      swap1\n      sub\n      add\n      swap1\n      log3\n      pop\n        /* \"contracts/link/token/linkBasicToken.sol\":680:684  true */\n      0x1\n        /* \"contracts/link/token/linkBasicToken.sol\":458:689  function transfer(address _to, uint256 _value) returns (bool) {... */\n    tag_112:\n      swap3\n      swap2\n      pop\n      pop\n      jump\t// out\n        /* \"contracts/link/math/linkSafeMath.sol\":684:817  function add(uint256 a, uint256 b) internal constant returns (uint256) {... */\n    tag_93:\n        /* \"contracts/link/math/linkSafeMath.sol\":746:753  uint256 */\n      0x0\n        /* \"contracts/link/math/linkSafeMath.sol\":773:778  a + b */\n      dup3\n      dup3\n      add\n        /* \"contracts/link/math/linkSafeMath.sol\":791:797  c >= a */\n      dup4\n      dup2\n      lt\n      iszero\n        /* \"contracts/link/math/linkSafeMath.sol\":784:798  assert(c >= a) */\n      tag_116\n      jumpi\n      invalid\n    tag_116:\n        /* \"contracts/link/math/linkSafeMath.sol\":811:812  c */\n      dup1\n        /* \"contracts/link/math/linkSafeMath.sol\":804:812  return c */\n      swap2\n      pop\n        /* \"contracts/link/math/linkSafeMath.sol\":684:817  function add(uint256 a, uint256 b) internal constant returns (uint256) {... */\n    tag_115:\n      pop\n      swap3\n      swap2\n      pop\n      pop\n      jump\t// out\n        /* \"contracts/link/ERC677Token.sol\":900:1067  function isContract(address _addr)... */\n    tag_106:\n        /* \"contracts/link/ERC677Token.sol\":960:972  bool hasCode */\n      0x0\n        /* \"contracts/link/ERC677Token.sol\":1020:1031  extcodesize */\n      dup2\n      extcodesize\n        /* \"contracts/link/ERC677Token.sol\":1052:1062  length > 0 */\n      swap1\n      dup2\n      gt\n      swap1\n        /* \"contracts/link/ERC677Token.sol\":900:1067  function isContract(address _addr)... */\n    tag_117:\n      pop\n      swap2\n      swap1\n      pop\n      jump\t// out\n        /* \"contracts/link/ERC677Token.sol\":704:896  function contractFallback(address _to, uint _value, bytes _data)... */\n    tag_109:\n        /* \"contracts/link/ERC677Token.sol\":789:812  ERC677Receiver receiver */\n      0x0\n        /* \"contracts/link/ERC677Token.sol\":830:833  _to */\n      dup4\n        /* \"contracts/link/ERC677Token.sol\":789:834  ERC677Receiver receiver = ERC677Receiver(_to) */\n      swap1\n      pop\n        /* \"contracts/link/ERC677Token.sol\":840:848  receiver */\n      dup1\n      sub(exp(0x2, 0xa0), 0x1)\n        /* \"contracts/link/ERC677Token.sol\":840:864  receiver.onTokenTransfer */\n      and\n      0xa4c0ed36\n        /* \"contracts/link/ERC677Token.sol\":865:875  msg.sender */\n      caller\n        /* \"contracts/link/ERC677Token.sol\":877:883  _value */\n      dup6\n        /* \"contracts/link/ERC677Token.sol\":885:890  _data */\n      dup6\n        /* \"contracts/link/ERC677Token.sol\":840:891  receiver.onTokenTransfer(msg.sender, _value, _data) */\n      mload(0x40)\n      dup5\n      0xffffffff\n      and\n      0x100000000000000000000000000000000000000000000000000000000\n      mul\n      dup2\n      mstore\n      0x4\n      add\n      dup1\n      dup5\n      sub(exp(0x2, 0xa0), 0x1)\n      and\n      sub(exp(0x2, 0xa0), 0x1)\n      and\n      dup2\n      mstore\n      0x20\n      add\n      dup4\n      dup2\n      mstore\n      0x20\n      add\n      dup1\n      0x20\n      add\n      dup3\n      dup2\n      sub\n      dup3\n      mstore\n      dup4\n      dup2\n      dup2\n      mload\n      dup2\n      mstore\n      0x20\n      add\n      swap2\n      pop\n      dup1\n      mload\n      swap1\n      0x20\n      add\n      swap1\n      dup1\n      dup4\n      dup4\n        /* \"--CODEGEN--\":26:27   */\n      0x0\n        /* \"--CODEGEN--\":21:24   */\n      dup4\n        /* \"--CODEGEN--\":18:20   */\n      eq\n        /* \"--CODEGEN--\":13:16   */\n      tag_119\n        /* \"--CODEGEN--\":7:12   */\n      jumpi\n        /* \"--CODEGEN--\":32:37   */\n    tag_120:\n        /* \"--CODEGEN--\":59:62   */\n      dup1\n        /* \"--CODEGEN--\":53:58   */\n      mload\n        /* \"--CODEGEN--\":48:51   */\n      dup3\n        /* \"--CODEGEN--\":41:47   */\n      mstore\n        /* \"--CODEGEN--\":93:95   */\n      0x20\n        /* \"--CODEGEN--\":88:91   */\n      dup4\n        /* \"--CODEGEN--\":85:87   */\n      gt\n        /* \"--CODEGEN--\":78:84   */\n      iszero\n        /* \"--CODEGEN--\":73:76   */\n      tag_119\n        /* \"--CODEGEN--\":67:72   */\n      jumpi\n      not(0x1f)\n        /* \"--CODEGEN--\":152:155   */\n      swap1\n      swap3\n      add\n      swap2\n        /* \"--CODEGEN--\":117:119   */\n      0x20\n        /* \"--CODEGEN--\":108:111   */\n      swap2\n      dup3\n      add\n      swap2\n        /* \"--CODEGEN--\":130:133   */\n      add\n        /* \"--CODEGEN--\":172:177   */\n      tag_120\n        /* \"--CODEGEN--\":167:171   */\n      jump\n        /* \"--CODEGEN--\":181:184   */\n    tag_119:\n        /* \"--CODEGEN--\":3:189   */\n      pop\n      pop\n      pop\n      swap1\n      pop\n      swap1\n      dup2\n      add\n      swap1\n      0x1f\n      and\n      dup1\n      iszero\n      tag_121\n      jumpi\n      dup1\n      dup3\n      sub\n      dup1\n      mload\n      0x1\n      dup4\n      0x20\n      sub\n      0x100\n      exp\n      sub\n      not\n      and\n      dup2\n      mstore\n      0x20\n      add\n      swap2\n      pop\n    tag_121:\n      pop\n      swap5\n      pop\n      pop\n      pop\n      pop\n      pop\n      0x0\n      mload(0x40)\n      dup1\n      dup4\n      sub\n      dup2\n      0x0\n      dup8\n      dup1\n      extcodesize\n      iszero\n      iszero\n      tag_122\n      jumpi\n      invalid\n    tag_122:\n      sub(gas, 0x2c6)\n      call\n      iszero\n      iszero\n      tag_123\n      jumpi\n      invalid\n    tag_123:\n      pop\n      pop\n      pop\n        /* \"contracts/link/ERC677Token.sol\":704:896  function contractFallback(address _to, uint _value, bytes _data)... */\n    tag_118:\n      pop\n      pop\n      pop\n      pop\n      jump\t// out\n}\n",
        "bytecode": {
          "linkReferences": {},
          "object": "6060604052341561000c57fe5b5b610c988061001c6000396000f300606060405236156100c25763ffffffff7c010000000000000000000000000000000000000000000000000000000060003504166306fdde0381146100c4578063095ea7b31461015457806318160ddd1461018757806323b872dd146101a9578063313ce567146101e25780634000aea0146102085780634f8e2fdf1461027f578063661884631461029157806370a08231146102c457806395d89b41146102f2578063a9059cbb14610382578063d73dd623146103b5578063dd62ed3e146103e8575bfe5b34156100cc57fe5b6100d461041c565b60408051602080825283518183015283519192839290830191850190808383821561011a575b80518252602083111561011a57601f1990920191602091820191016100fa565b505050905090810190601f1680156101465780820380516001836020036101000a031916815260200191505b509250505060405180910390f35b341561015c57fe5b610173600160a060020a0360043516602435610453565b604080519115158252519081900360200190f35b341561018f57fe5b6101976104a1565b60408051918252519081900360200190f35b34156101b157fe5b610173600160a060020a03600435811690602435166044356104b1565b604080519115158252519081900360200190f35b34156101ea57fe5b6101f2610501565b6040805160ff9092168252519081900360200190f35b341561021057fe5b604080516020600460443581810135601f8101849004840285018401909552848452610173948235600160a060020a031694602480359560649492939190920191819084018382808284375094965061050695505050505050565b604080519115158252519081900360200190f35b341561028757fe5b61028f610556565b005b341561029957fe5b610173600160a060020a0360043516602435610580565b604080519115158252519081900360200190f35b34156102cc57fe5b610197600160a060020a036004351661067b565b60408051918252519081900360200190f35b34156102fa57fe5b6100d461069a565b60408051602080825283518183015283519192839290830191850190808383821561011a575b80518252602083111561011a57601f1990920191602091820191016100fa565b505050905090810190601f1680156101465780820380516001836020036101000a031916815260200191505b509250505060405180910390f35b341561038a57fe5b610173600160a060020a03600435166024356106d1565b604080519115158252519081900360200190f35b34156103bd57fe5b610173600160a060020a036004351660243561071f565b604080519115158252519081900360200190f35b34156103f057fe5b610197600160a060020a03600435811690602435166107c2565b60408051918252519081900360200190f35b60408051808201909152600f81527f436861696e4c696e6b20546f6b656e0000000000000000000000000000000000602082015281565b600082600160a060020a03811615801590610480575030600160a060020a031681600160a060020a031614155b151561048c5760006000fd5b61049684846107ef565b91505b5b5092915050565b6b033b2e3c9fd0803ce800000081565b600082600160a060020a038116158015906104de575030600160a060020a031681600160a060020a031614155b15156104ea5760006000fd5b6104f585858561085a565b91505b5b509392505050565b601281565b600083600160a060020a03811615801590610533575030600160a060020a031681600160a060020a031614155b151561053f5760006000fd5b6104f585858561096c565b91505b5b509392505050565b600160a060020a03331660009081526001602052604090206b033b2e3c9fd0803ce800000090555b565b600160a060020a033381166000908152600260209081526040808320938616835292905290812054808311156105dd57600160a060020a033381166000908152600260209081526040808320938816835292905290812055610614565b6105ed818463ffffffff610a6016565b600160a060020a033381166000908152600260209081526040808320938916835292905220555b600160a060020a0333811660008181526002602090815260408083209489168084529482529182902054825190815291517f8c5be1e5ebec7d5bd14f71427d1e84f3dd0314c0f7b2291e5b200ac8c7c3b9259281900390910190a3600191505b5092915050565b600160a060020a0381166000908152600160205260409020545b919050565b60408051808201909152600481527f4c494e4b00000000000000000000000000000000000000000000000000000000602082015281565b600082600160a060020a038116158015906106fe575030600160a060020a031681600160a060020a031614155b151561070a5760006000fd5b6104968484610a77565b91505b5b5092915050565b600160a060020a033381166000908152600260209081526040808320938616835292905290812054610757908363ffffffff610b3716565b600160a060020a0333811660008181526002602090815260408083209489168084529482529182902085905581519485529051929391927f8c5be1e5ebec7d5bd14f71427d1e84f3dd0314c0f7b2291e5b200ac8c7c3b9259281900390910190a35060015b92915050565b600160a060020a038083166000908152600260209081526040808320938516835292905220545b92915050565b600160a060020a03338116600081815260026020908152604080832094871680845294825280832086905580518681529051929493927f8c5be1e5ebec7d5bd14f71427d1e84f3dd0314c0f7b2291e5b200ac8c7c3b925929181900390910190a35060015b92915050565b600160a060020a03808416600081815260026020908152604080832033909516835293815283822054928252600190529182205461089e908463ffffffff610a6016565b600160a060020a0380871660009081526001602052604080822093909355908616815220546108d3908463ffffffff610b3716565b600160a060020a0385166000908152600160205260409020556108fc818463ffffffff610a6016565b600160a060020a038087166000818152600260209081526040808320338616845282529182902094909455805187815290519288169391927fddf252ad1be2c89b69c2b068fc378daa952ba7f163c4a11628f55a4df523b3ef929181900390910190a3600191505b509392505050565b60006109788484610a77565b5083600160a060020a031633600160a060020a03167fe19260aff97b920c7df27010903aeb9c8d2be5d310a2c67824cf3f15396e4c1685856040518083815260200180602001828103825283818151815260200191508051906020019080838360008314610a01575b805182526020831115610a0157601f1990920191602091820191016109e1565b505050905090810190601f168015610a2d5780820380516001836020036101000a031916815260200191505b50935050505060405180910390a3610a4484610b51565b15610a5457610a54848484610b60565b5b5060015b9392505050565b600082821115610a6c57fe5b508082035b92915050565b600160a060020a033316600090815260016020526040812054610aa0908363ffffffff610a6016565b600160a060020a033381166000908152600160205260408082209390935590851681522054610ad5908363ffffffff610b3716565b600160a060020a038085166000818152600160209081526040918290209490945580518681529051919333909316927fddf252ad1be2c89b69c2b068fc378daa952ba7f163c4a11628f55a4df523b3ef92918290030190a35060015b92915050565b600082820183811015610b4657fe5b8091505b5092915050565b6000813b908111905b50919050565b600083905080600160a060020a031663a4c0ed363385856040518463ffffffff167c01000000000000000000000000000000000000000000000000000000000281526004018084600160a060020a0316600160a060020a0316815260200183815260200180602001828103825283818151815260200191508051906020019080838360008314610c0b575b805182526020831115610c0b57601f199092019160209182019101610beb565b505050905090810190601f168015610c375780820380516001836020036101000a031916815260200191505b50945050505050600060405180830381600087803b1515610c5457fe5b6102c65a03f11515610c6257fe5b5050505b505050505600a165627a7a72305820900a807d1c162b2c7f0be9f59b8120e63b0b0fd26647826709c9e48fe46822fa0029",
          "opcodes": "PUSH1 0x60 PUSH1 0x40 MSTORE CALLVALUE ISZERO PUSH2 0xC JUMPI INVALID JUMPDEST JUMPDEST PUSH2 0xC98 DUP1 PUSH2 0x1C PUSH1 0x0 CODECOPY PUSH1 0x0 RETURN STOP PUSH1 0x60 PUSH1 0x40 MSTORE CALLDATASIZE ISZERO PUSH2 0xC2 JUMPI PUSH4 0xFFFFFFFF PUSH29 0x100000000000000000000000000000000000000000000000000000000 PUSH1 0x0 CALLDATALOAD DIV AND PUSH4 0x6FDDE03 DUP2 EQ PUSH2 0xC4 JUMPI DUP1 PUSH4 0x95EA7B3 EQ PUSH2 0x154 JUMPI DUP1 PUSH4 0x18160DDD EQ PUSH2 0x187 JUMPI DUP1 PUSH4 0x23B872DD EQ PUSH2 0x1A9 JUMPI DUP1 PUSH4 0x313CE567 EQ PUSH2 0x1E2 JUMPI DUP1 PUSH4 0x4000AEA0 EQ PUSH2 0x208 JUMPI DUP1 PUSH4 0x4F8E2FDF EQ PUSH2 0x27F JUMPI DUP1 PUSH4 0x66188463 EQ PUSH2 0x291 JUMPI DUP1 PUSH4 0x70A08231 EQ PUSH2 0x2C4 JUMPI DUP1 PUSH4 0x95D89B41 EQ PUSH2 0x2F2 JUMPI DUP1 PUSH4 0xA9059CBB EQ PUSH2 0x382 JUMPI DUP1 PUSH4 0xD73DD623 EQ PUSH2 0x3B5 JUMPI DUP1 PUSH4 0xDD62ED3E EQ PUSH2 0x3E8 JUMPI JUMPDEST INVALID JUMPDEST CALLVALUE ISZERO PUSH2 0xCC JUMPI INVALID JUMPDEST PUSH2 0xD4 PUSH2 0x41C JUMP JUMPDEST PUSH1 0x40 DUP1 MLOAD PUSH1 0x20 DUP1 DUP3 MSTORE DUP4 MLOAD DUP2 DUP4 ADD MSTORE DUP4 MLOAD SWAP2 SWAP3 DUP4 SWAP3 SWAP1 DUP4 ADD SWAP2 DUP6 ADD SWAP1 DUP1 DUP4 DUP4 DUP3 ISZERO PUSH2 0x11A JUMPI JUMPDEST DUP1 MLOAD DUP3 MSTORE PUSH1 0x20 DUP4 GT ISZERO PUSH2 0x11A JUMPI PUSH1 0x1F NOT SWAP1 SWAP3 ADD SWAP2 PUSH1 0x20 SWAP2 DUP3 ADD SWAP2 ADD PUSH2 0xFA JUMP JUMPDEST POP POP POP SWAP1 POP SWAP1 DUP2 ADD SWAP1 PUSH1 0x1F AND DUP1 ISZERO PUSH2 0x146 JUMPI DUP1 DUP3 SUB DUP1 MLOAD PUSH1 0x1 DUP4 PUSH1 0x20 SUB PUSH2 0x100 EXP SUB NOT AND DUP2 MSTORE PUSH1 0x20 ADD SWAP2 POP JUMPDEST POP SWAP3 POP POP POP PUSH1 0x40 MLOAD DUP1 SWAP2 SUB SWAP1 RETURN JUMPDEST CALLVALUE ISZERO PUSH2 0x15C JUMPI INVALID JUMPDEST PUSH2 0x173 PUSH1 0x1 PUSH1 0xA0 PUSH1 0x2 EXP SUB PUSH1 0x4 CALLDATALOAD AND PUSH1 0x24 CALLDATALOAD PUSH2 0x453 JUMP JUMPDEST PUSH1 0x40 DUP1 MLOAD SWAP2 ISZERO ISZERO DUP3 MSTORE MLOAD SWAP1 DUP2 SWAP1 SUB PUSH1 0x20 ADD SWAP1 RETURN JUMPDEST CALLVALUE ISZERO PUSH2 0x18F JUMPI INVALID JUMPDEST PUSH2 0x197 PUSH2 0x4A1 JUMP JUMPDEST PUSH1 0x40 DUP1 MLOAD SWAP2 DUP3 MSTORE MLOAD SWAP1 DUP2 SWAP1 SUB PUSH1 0x20 ADD SWAP1 RETURN JUMPDEST CALLVALUE ISZERO PUSH2 0x1B1 JUMPI INVALID JUMPDEST PUSH2 0x173 PUSH1 0x1 PUSH1 0xA0 PUSH1 0x2 EXP SUB PUSH1 0x4 CALLDATALOAD DUP2 AND SWAP1 PUSH1 0x24 CALLDATALOAD AND PUSH1 0x44 CALLDATALOAD PUSH2 0x4B1 JUMP JUMPDEST PUSH1 0x40 DUP1 MLOAD SWAP2 ISZERO ISZERO DUP3 MSTORE MLOAD SWAP1 DUP2 SWAP1 SUB PUSH1 0x20 ADD SWAP1 RETURN JUMPDEST CALLVALUE ISZERO PUSH2 0x1EA JUMPI INVALID JUMPDEST PUSH2 0x1F2 PUSH2 0x501 JUMP JUMPDEST PUSH1 0x40 DUP1 MLOAD PUSH1 0xFF SWAP1 SWAP3 AND DUP3 MSTORE MLOAD SWAP1 DUP2 SWAP1 SUB PUSH1 0x20 ADD SWAP1 RETURN JUMPDEST CALLVALUE ISZERO PUSH2 0x210 JUMPI INVALID JUMPDEST PUSH1 0x40 DUP1 MLOAD PUSH1 0x20 PUSH1 0x4 PUSH1 0x44 CALLDATALOAD DUP2 DUP2 ADD CALLDATALOAD PUSH1 0x1F DUP2 ADD DUP5 SWAP1 DIV DUP5 MUL DUP6 ADD DUP5 ADD SWAP1 SWAP6 MSTORE DUP5 DUP5 MSTORE PUSH2 0x173 SWAP5 DUP3 CALLDATALOAD PUSH1 0x1 PUSH1 0xA0 PUSH1 0x2 EXP SUB AND SWAP5 PUSH1 0x24 DUP1 CALLDATALOAD SWAP6 PUSH1 0x64 SWAP5 SWAP3 SWAP4 SWAP2 SWAP1 SWAP3 ADD SWAP2 DUP2 SWAP1 DUP5 ADD DUP4 DUP3 DUP1 DUP3 DUP5 CALLDATACOPY POP SWAP5 SWAP7 POP PUSH2 0x506 SWAP6 POP POP POP POP POP POP JUMP JUMPDEST PUSH1 0x40 DUP1 MLOAD SWAP2 ISZERO ISZERO DUP3 MSTORE MLOAD SWAP1 DUP2 SWAP1 SUB PUSH1 0x20 ADD SWAP1 RETURN JUMPDEST CALLVALUE ISZERO PUSH2 0x287 JUMPI INVALID JUMPDEST PUSH2 0x28F PUSH2 0x556 JUMP JUMPDEST STOP JUMPDEST CALLVALUE ISZERO PUSH2 0x299 JUMPI INVALID JUMPDEST PUSH2 0x173 PUSH1 0x1 PUSH1 0xA0 PUSH1 0x2 EXP SUB PUSH1 0x4 CALLDATALOAD AND PUSH1 0x24 CALLDATALOAD PUSH2 0x580 JUMP JUMPDEST PUSH1 0x40 DUP1 MLOAD SWAP2 ISZERO ISZERO DUP3 MSTORE MLOAD SWAP1 DUP2 SWAP1 SUB PUSH1 0x20 ADD SWAP1 RETURN JUMPDEST CALLVALUE ISZERO PUSH2 0x2CC JUMPI INVALID JUMPDEST PUSH2 0x197 PUSH1 0x1 PUSH1 0xA0 PUSH1 0x2 EXP SUB PUSH1 0x4 CALLDATALOAD AND PUSH2 0x67B JUMP JUMPDEST PUSH1 0x40 DUP1 MLOAD SWAP2 DUP3 MSTORE MLOAD SWAP1 DUP2 SWAP1 SUB PUSH1 0x20 ADD SWAP1 RETURN JUMPDEST CALLVALUE ISZERO PUSH2 0x2FA JUMPI INVALID JUMPDEST PUSH2 0xD4 PUSH2 0x69A JUMP JUMPDEST PUSH1 0x40 DUP1 MLOAD PUSH1 0x20 DUP1 DUP3 MSTORE DUP4 MLOAD DUP2 DUP4 ADD MSTORE DUP4 MLOAD SWAP2 SWAP3 DUP4 SWAP3 SWAP1 DUP4 ADD SWAP2 DUP6 ADD SWAP1 DUP1 DUP4 DUP4 DUP3 ISZERO PUSH2 0x11A JUMPI JUMPDEST DUP1 MLOAD DUP3 MSTORE PUSH1 0x20 DUP4 GT ISZERO PUSH2 0x11A JUMPI PUSH1 0x1F NOT SWAP1 SWAP3 ADD SWAP2 PUSH1 0x20 SWAP2 DUP3 ADD SWAP2 ADD PUSH2 0xFA JUMP JUMPDEST POP POP POP SWAP1 POP SWAP1 DUP2 ADD SWAP1 PUSH1 0x1F AND DUP1 ISZERO PUSH2 0x146 JUMPI DUP1 DUP3 SUB DUP1 MLOAD PUSH1 0x1 DUP4 PUSH1 0x20 SUB PUSH2 0x100 EXP SUB NOT AND DUP2 MSTORE PUSH1 0x20 ADD SWAP2 POP JUMPDEST POP SWAP3 POP POP POP PUSH1 0x40 MLOAD DUP1 SWAP2 SUB SWAP1 RETURN JUMPDEST CALLVALUE ISZERO PUSH2 0x38A JUMPI INVALID JUMPDEST PUSH2 0x173 PUSH1 0x1 PUSH1 0xA0 PUSH1 0x2 EXP SUB PUSH1 0x4 CALLDATALOAD AND PUSH1 0x24 CALLDATALOAD PUSH2 0x6D1 JUMP JUMPDEST PUSH1 0x40 DUP1 MLOAD SWAP2 ISZERO ISZERO DUP3 MSTORE MLOAD SWAP1 DUP2 SWAP1 SUB PUSH1 0x20 ADD SWAP1 RETURN JUMPDEST CALLVALUE ISZERO PUSH2 0x3BD JUMPI INVALID JUMPDEST PUSH2 0x173 PUSH1 0x1 PUSH1 0xA0 PUSH1 0x2 EXP SUB PUSH1 0x4 CALLDATALOAD AND PUSH1 0x24 CALLDATALOAD PUSH2 0x71F JUMP JUMPDEST PUSH1 0x40 DUP1 MLOAD SWAP2 ISZERO ISZERO DUP3 MSTORE MLOAD SWAP1 DUP2 SWAP1 SUB PUSH1 0x20 ADD SWAP1 RETURN JUMPDEST CALLVALUE ISZERO PUSH2 0x3F0 JUMPI INVALID JUMPDEST PUSH2 0x197 PUSH1 0x1 PUSH1 0xA0 PUSH1 0x2 EXP SUB PUSH1 0x4 CALLDATALOAD DUP2 AND SWAP1 PUSH1 0x24 CALLDATALOAD AND PUSH2 0x7C2 JUMP JUMPDEST PUSH1 0x40 DUP1 MLOAD SWAP2 DUP3 MSTORE MLOAD SWAP1 DUP2 SWAP1 SUB PUSH1 0x20 ADD SWAP1 RETURN JUMPDEST PUSH1 0x40 DUP1 MLOAD DUP1 DUP3 ADD SWAP1 SWAP2 MSTORE PUSH1 0xF DUP2 MSTORE PUSH32 0x436861696E4C696E6B20546F6B656E0000000000000000000000000000000000 PUSH1 0x20 DUP3 ADD MSTORE DUP2 JUMP JUMPDEST PUSH1 0x0 DUP3 PUSH1 0x1 PUSH1 0xA0 PUSH1 0x2 EXP SUB DUP2 AND ISZERO DUP1 ISZERO SWAP1 PUSH2 0x480 JUMPI POP ADDRESS PUSH1 0x1 PUSH1 0xA0 PUSH1 0x2 EXP SUB AND DUP2 PUSH1 0x1 PUSH1 0xA0 PUSH1 0x2 EXP SUB AND EQ ISZERO JUMPDEST ISZERO ISZERO PUSH2 0x48C JUMPI PUSH1 0x0 PUSH1 0x0 REVERT JUMPDEST PUSH2 0x496 DUP5 DUP5 PUSH2 0x7EF JUMP JUMPDEST SWAP2 POP JUMPDEST JUMPDEST POP SWAP3 SWAP2 POP POP JUMP JUMPDEST PUSH12 0x33B2E3C9FD0803CE8000000 DUP2 JUMP JUMPDEST PUSH1 0x0 DUP3 PUSH1 0x1 PUSH1 0xA0 PUSH1 0x2 EXP SUB DUP2 AND ISZERO DUP1 ISZERO SWAP1 PUSH2 0x4DE JUMPI POP ADDRESS PUSH1 0x1 PUSH1 0xA0 PUSH1 0x2 EXP SUB AND DUP2 PUSH1 0x1 PUSH1 0xA0 PUSH1 0x2 EXP SUB AND EQ ISZERO JUMPDEST ISZERO ISZERO PUSH2 0x4EA JUMPI PUSH1 0x0 PUSH1 0x0 REVERT JUMPDEST PUSH2 0x4F5 DUP6 DUP6 DUP6 PUSH2 0x85A JUMP JUMPDEST SWAP2 POP JUMPDEST JUMPDEST POP SWAP4 SWAP3 POP POP POP JUMP JUMPDEST PUSH1 0x12 DUP2 JUMP JUMPDEST PUSH1 0x0 DUP4 PUSH1 0x1 PUSH1 0xA0 PUSH1 0x2 EXP SUB DUP2 AND ISZERO DUP1 ISZERO SWAP1 PUSH2 0x533 JUMPI POP ADDRESS PUSH1 0x1 PUSH1 0xA0 PUSH1 0x2 EXP SUB AND DUP2 PUSH1 0x1 PUSH1 0xA0 PUSH1 0x2 EXP SUB AND EQ ISZERO JUMPDEST ISZERO ISZERO PUSH2 0x53F JUMPI PUSH1 0x0 PUSH1 0x0 REVERT JUMPDEST PUSH2 0x4F5 DUP6 DUP6 DUP6 PUSH2 0x96C JUMP JUMPDEST SWAP2 POP JUMPDEST JUMPDEST POP SWAP4 SWAP3 POP POP POP JUMP JUMPDEST PUSH1 0x1 PUSH1 0xA0 PUSH1 0x2 EXP SUB CALLER AND PUSH1 0x0 SWAP1 DUP2 MSTORE PUSH1 0x1 PUSH1 0x20 MSTORE PUSH1 0x40 SWAP1 SHA3 PUSH12 0x33B2E3C9FD0803CE8000000 SWAP1 SSTORE JUMPDEST JUMP JUMPDEST PUSH1 0x1 PUSH1 0xA0 PUSH1 0x2 EXP SUB CALLER DUP2 AND PUSH1 0x0 SWAP1 DUP2 MSTORE PUSH1 0x2 PUSH1 0x20 SWAP1 DUP2 MSTORE PUSH1 0x40 DUP1 DUP4 SHA3 SWAP4 DUP7 AND DUP4 MSTORE SWAP3 SWAP1 MSTORE SWAP1 DUP2 SHA3 SLOAD DUP1 DUP4 GT ISZERO PUSH2 0x5DD JUMPI PUSH1 0x1 PUSH1 0xA0 PUSH1 0x2 EXP SUB CALLER DUP2 AND PUSH1 0x0 SWAP1 DUP2 MSTORE PUSH1 0x2 PUSH1 0x20 SWAP1 DUP2 MSTORE PUSH1 0x40 DUP1 DUP4 SHA3 SWAP4 DUP9 AND DUP4 MSTORE SWAP3 SWAP1 MSTORE SWAP1 DUP2 SHA3 SSTORE PUSH2 0x614 JUMP JUMPDEST PUSH2 0x5ED DUP2 DUP5 PUSH4 0xFFFFFFFF PUSH2 0xA60 AND JUMP JUMPDEST PUSH1 0x1 PUSH1 0xA0 PUSH1 0x2 EXP SUB CALLER DUP2 AND PUSH1 0x0 SWAP1 DUP2 MSTORE PUSH1 0x2 PUSH1 0x20 SWAP1 DUP2 MSTORE PUSH1 0x40 DUP1 DUP4 SHA3 SWAP4 DUP10 AND DUP4 MSTORE SWAP3 SWAP1 MSTORE SHA3 SSTORE JUMPDEST PUSH1 0x1 PUSH1 0xA0 PUSH1 0x2 EXP SUB CALLER DUP2 AND PUSH1 0x0 DUP2 DUP2 MSTORE PUSH1 0x2 PUSH1 0x20 SWAP1 DUP2 MSTORE PUSH1 0x40 DUP1 DUP4 SHA3 SWAP5 DUP10 AND DUP1 DUP5 MSTORE SWAP5 DUP3 MSTORE SWAP2 DUP3 SWAP1 SHA3 SLOAD DUP3 MLOAD SWAP1 DUP2 MSTORE SWAP2 MLOAD PUSH32 0x8C5BE1E5EBEC7D5BD14F71427D1E84F3DD0314C0F7B2291E5B200AC8C7C3B925 SWAP3 DUP2 SWAP1 SUB SWAP1 SWAP2 ADD SWAP1 LOG3 PUSH1 0x1 SWAP2 POP JUMPDEST POP SWAP3 SWAP2 POP POP JUMP JUMPDEST PUSH1 0x1 PUSH1 0xA0 PUSH1 0x2 EXP SUB DUP2 AND PUSH1 0x0 SWAP1 DUP2 MSTORE PUSH1 0x1 PUSH1 0x20 MSTORE PUSH1 0x40 SWAP1 SHA3 SLOAD JUMPDEST SWAP2 SWAP1 POP JUMP JUMPDEST PUSH1 0x40 DUP1 MLOAD DUP1 DUP3 ADD SWAP1 SWAP2 MSTORE PUSH1 0x4 DUP2 MSTORE PUSH32 0x4C494E4B00000000000000000000000000000000000000000000000000000000 PUSH1 0x20 DUP3 ADD MSTORE DUP2 JUMP JUMPDEST PUSH1 0x0 DUP3 PUSH1 0x1 PUSH1 0xA0 PUSH1 0x2 EXP SUB DUP2 AND ISZERO DUP1 ISZERO SWAP1 PUSH2 0x6FE JUMPI POP ADDRESS PUSH1 0x1 PUSH1 0xA0 PUSH1 0x2 EXP SUB AND DUP2 PUSH1 0x1 PUSH1 0xA0 PUSH1 0x2 EXP SUB AND EQ ISZERO JUMPDEST ISZERO ISZERO PUSH2 0x70A JUMPI PUSH1 0x0 PUSH1 0x0 REVERT JUMPDEST PUSH2 0x496 DUP5 DUP5 PUSH2 0xA77 JUMP JUMPDEST SWAP2 POP JUMPDEST JUMPDEST POP SWAP3 SWAP2 POP POP JUMP JUMPDEST PUSH1 0x1 PUSH1 0xA0 PUSH1 0x2 EXP SUB CALLER DUP2 AND PUSH1 0x0 SWAP1 DUP2 MSTORE PUSH1 0x2 PUSH1 0x20 SWAP1 DUP2 MSTORE PUSH1 0x40 DUP1 DUP4 SHA3 SWAP4 DUP7 AND DUP4 MSTORE SWAP3 SWAP1 MSTORE SWAP1 DUP2 SHA3 SLOAD PUSH2 0x757 SWAP1 DUP4 PUSH4 0xFFFFFFFF PUSH2 0xB37 AND JUMP JUMPDEST PUSH1 0x1 PUSH1 0xA0 PUSH1 0x2 EXP SUB CALLER DUP2 AND PUSH1 0x0 DUP2 DUP2 MSTORE PUSH1 0x2 PUSH1 0x20 SWAP1 DUP2 MSTORE PUSH1 0x40 DUP1 DUP4 SHA3 SWAP5 DUP10 AND DUP1 DUP5 MSTORE SWAP5 DUP3 MSTORE SWAP2 DUP3 SWAP1 SHA3 DUP6 SWAP1 SSTORE DUP2 MLOAD SWAP5 DUP6 MSTORE SWAP1 MLOAD SWAP3 SWAP4 SWAP2 SWAP3 PUSH32 0x8C5BE1E5EBEC7D5BD14F71427D1E84F3DD0314C0F7B2291E5B200AC8C7C3B925 SWAP3 DUP2 SWAP1 SUB SWAP1 SWAP2 ADD SWAP1 LOG3 POP PUSH1 0x1 JUMPDEST SWAP3 SWAP2 POP POP JUMP JUMPDEST PUSH1 0x1 PUSH1 0xA0 PUSH1 0x2 EXP SUB DUP1 DUP4 AND PUSH1 0x0 SWAP1 DUP2 MSTORE PUSH1 0x2 PUSH1 0x20 SWAP1 DUP2 MSTORE PUSH1 0x40 DUP1 DUP4 SHA3 SWAP4 DUP6 AND DUP4 MSTORE SWAP3 SWAP1 MSTORE SHA3 SLOAD JUMPDEST SWAP3 SWAP2 POP POP JUMP JUMPDEST PUSH1 0x1 PUSH1 0xA0 PUSH1 0x2 EXP SUB CALLER DUP2 AND PUSH1 0x0 DUP2 DUP2 MSTORE PUSH1 0x2 PUSH1 0x20 SWAP1 DUP2 MSTORE PUSH1 0x40 DUP1 DUP4 SHA3 SWAP5 DUP8 AND DUP1 DUP5 MSTORE SWAP5 DUP3 MSTORE DUP1 DUP4 SHA3 DUP7 SWAP1 SSTORE DUP1 MLOAD DUP7 DUP2 MSTORE SWAP1 MLOAD SWAP3 SWAP5 SWAP4 SWAP3 PUSH32 0x8C5BE1E5EBEC7D5BD14F71427D1E84F3DD0314C0F7B2291E5B200AC8C7C3B925 SWAP3 SWAP2 DUP2 SWAP1 SUB SWAP1 SWAP2 ADD SWAP1 LOG3 POP PUSH1 0x1 JUMPDEST SWAP3 SWAP2 POP POP JUMP JUMPDEST PUSH1 0x1 PUSH1 0xA0 PUSH1 0x2 EXP SUB DUP1 DUP5 AND PUSH1 0x0 DUP2 DUP2 MSTORE PUSH1 0x2 PUSH1 0x20 SWAP1 DUP2 MSTORE PUSH1 0x40 DUP1 DUP4 SHA3 CALLER SWAP1 SWAP6 AND DUP4 MSTORE SWAP4 DUP2 MSTORE DUP4 DUP3 SHA3 SLOAD SWAP3 DUP3 MSTORE PUSH1 0x1 SWAP1 MSTORE SWAP2 DUP3 SHA3 SLOAD PUSH2 0x89E SWAP1 DUP5 PUSH4 0xFFFFFFFF PUSH2 0xA60 AND JUMP JUMPDEST PUSH1 0x1 PUSH1 0xA0 PUSH1 0x2 EXP SUB DUP1 DUP8 AND PUSH1 0x0 SWAP1 DUP2 MSTORE PUSH1 0x1 PUSH1 0x20 MSTORE PUSH1 0x40 DUP1 DUP3 SHA3 SWAP4 SWAP1 SWAP4 SSTORE SWAP1 DUP7 AND DUP2 MSTORE SHA3 SLOAD PUSH2 0x8D3 SWAP1 DUP5 PUSH4 0xFFFFFFFF PUSH2 0xB37 AND JUMP JUMPDEST PUSH1 0x1 PUSH1 0xA0 PUSH1 0x2 EXP SUB DUP6 AND PUSH1 0x0 SWAP1 DUP2 MSTORE PUSH1 0x1 PUSH1 0x20 MSTORE PUSH1 0x40 SWAP1 SHA3 SSTORE PUSH2 0x8FC DUP2 DUP5 PUSH4 0xFFFFFFFF PUSH2 0xA60 AND JUMP JUMPDEST PUSH1 0x1 PUSH1 0xA0 PUSH1 0x2 EXP SUB DUP1 DUP8 AND PUSH1 0x0 DUP2 DUP2 MSTORE PUSH1 0x2 PUSH1 0x20 SWAP1 DUP2 MSTORE PUSH1 0x40 DUP1 DUP4 SHA3 CALLER DUP7 AND DUP5 MSTORE DUP3 MSTORE SWAP2 DUP3 SWAP1 SHA3 SWAP5 SWAP1 SWAP5 SSTORE DUP1 MLOAD DUP8 DUP2 MSTORE SWAP1 MLOAD SWAP3 DUP9 AND SWAP4 SWAP2 SWAP3 PUSH32 0xDDF252AD1BE2C89B69C2B068FC378DAA952BA7F163C4A11628F55A4DF523B3EF SWAP3 SWAP2 DUP2 SWAP1 SUB SWAP1 SWAP2 ADD SWAP1 LOG3 PUSH1 0x1 SWAP2 POP JUMPDEST POP SWAP4 SWAP3 POP POP POP JUMP JUMPDEST PUSH1 0x0 PUSH2 0x978 DUP5 DUP5 PUSH2 0xA77 JUMP JUMPDEST POP DUP4 PUSH1 0x1 PUSH1 0xA0 PUSH1 0x2 EXP SUB AND CALLER PUSH1 0x1 PUSH1 0xA0 PUSH1 0x2 EXP SUB AND PUSH32 0xE19260AFF97B920C7DF27010903AEB9C8D2BE5D310A2C67824CF3F15396E4C16 DUP6 DUP6 PUSH1 0x40 MLOAD DUP1 DUP4 DUP2 MSTORE PUSH1 0x20 ADD DUP1 PUSH1 0x20 ADD DUP3 DUP2 SUB DUP3 MSTORE DUP4 DUP2 DUP2 MLOAD DUP2 MSTORE PUSH1 0x20 ADD SWAP2 POP DUP1 MLOAD SWAP1 PUSH1 0x20 ADD SWAP1 DUP1 DUP4 DUP4 PUSH1 0x0 DUP4 EQ PUSH2 0xA01 JUMPI JUMPDEST DUP1 MLOAD DUP3 MSTORE PUSH1 0x20 DUP4 GT ISZERO PUSH2 0xA01 JUMPI PUSH1 0x1F NOT SWAP1 SWAP3 ADD SWAP2 PUSH1 0x20 SWAP2 DUP3 ADD SWAP2 ADD PUSH2 0x9E1 JUMP JUMPDEST POP POP POP SWAP1 POP SWAP1 DUP2 ADD SWAP1 PUSH1 0x1F AND DUP1 ISZERO PUSH2 0xA2D JUMPI DUP1 DUP3 SUB DUP1 MLOAD PUSH1 0x1 DUP4 PUSH1 0x20 SUB PUSH2 0x100 EXP SUB NOT AND DUP2 MSTORE PUSH1 0x20 ADD SWAP2 POP JUMPDEST POP SWAP4 POP POP POP POP PUSH1 0x40 MLOAD DUP1 SWAP2 SUB SWAP1 LOG3 PUSH2 0xA44 DUP5 PUSH2 0xB51 JUMP JUMPDEST ISZERO PUSH2 0xA54 JUMPI PUSH2 0xA54 DUP5 DUP5 DUP5 PUSH2 0xB60 JUMP JUMPDEST JUMPDEST POP PUSH1 0x1 JUMPDEST SWAP4 SWAP3 POP POP POP JUMP JUMPDEST PUSH1 0x0 DUP3 DUP3 GT ISZERO PUSH2 0xA6C JUMPI INVALID JUMPDEST POP DUP1 DUP3 SUB JUMPDEST SWAP3 SWAP2 POP POP JUMP JUMPDEST PUSH1 0x1 PUSH1 0xA0 PUSH1 0x2 EXP SUB CALLER AND PUSH1 0x0 SWAP1 DUP2 MSTORE PUSH1 0x1 PUSH1 0x20 MSTORE PUSH1 0x40 DUP2 SHA3 SLOAD PUSH2 0xAA0 SWAP1 DUP4 PUSH4 0xFFFFFFFF PUSH2 0xA60 AND JUMP JUMPDEST PUSH1 0x1 PUSH1 0xA0 PUSH1 0x2 EXP SUB CALLER DUP2 AND PUSH1 0x0 SWAP1 DUP2 MSTORE PUSH1 0x1 PUSH1 0x20 MSTORE PUSH1 0x40 DUP1 DUP3 SHA3 SWAP4 SWAP1 SWAP4 SSTORE SWAP1 DUP6 AND DUP2 MSTORE SHA3 SLOAD PUSH2 0xAD5 SWAP1 DUP4 PUSH4 0xFFFFFFFF PUSH2 0xB37 AND JUMP JUMPDEST PUSH1 0x1 PUSH1 0xA0 PUSH1 0x2 EXP SUB DUP1 DUP6 AND PUSH1 0x0 DUP2 DUP2 MSTORE PUSH1 0x1 PUSH1 0x20 SWAP1 DUP2 MSTORE PUSH1 0x40 SWAP2 DUP3 SWAP1 SHA3 SWAP5 SWAP1 SWAP5 SSTORE DUP1 MLOAD DUP7 DUP2 MSTORE SWAP1 MLOAD SWAP2 SWAP4 CALLER SWAP1 SWAP4 AND SWAP3 PUSH32 0xDDF252AD1BE2C89B69C2B068FC378DAA952BA7F163C4A11628F55A4DF523B3EF SWAP3 SWAP2 DUP3 SWAP1 SUB ADD SWAP1 LOG3 POP PUSH1 0x1 JUMPDEST SWAP3 SWAP2 POP POP JUMP JUMPDEST PUSH1 0x0 DUP3 DUP3 ADD DUP4 DUP2 LT ISZERO PUSH2 0xB46 JUMPI INVALID JUMPDEST DUP1 SWAP2 POP JUMPDEST POP SWAP3 SWAP2 POP POP JUMP JUMPDEST PUSH1 0x0 DUP2 EXTCODESIZE SWAP1 DUP2 GT SWAP1 JUMPDEST POP SWAP2 SWAP1 POP JUMP JUMPDEST PUSH1 0x0 DUP4 SWAP1 POP DUP1 PUSH1 0x1 PUSH1 0xA0 PUSH1 0x2 EXP SUB AND PUSH4 0xA4C0ED36 CALLER DUP6 DUP6 PUSH1 0x40 MLOAD DUP5 PUSH4 0xFFFFFFFF AND PUSH29 0x100000000000000000000000000000000000000000000000000000000 MUL DUP2 MSTORE PUSH1 0x4 ADD DUP1 DUP5 PUSH1 0x1 PUSH1 0xA0 PUSH1 0x2 EXP SUB AND PUSH1 0x1 PUSH1 0xA0 PUSH1 0x2 EXP SUB AND DUP2 MSTORE PUSH1 0x20 ADD DUP4 DUP2 MSTORE PUSH1 0x20 ADD DUP1 PUSH1 0x20 ADD DUP3 DUP2 SUB DUP3 MSTORE DUP4 DUP2 DUP2 MLOAD DUP2 MSTORE PUSH1 0x20 ADD SWAP2 POP DUP1 MLOAD SWAP1 PUSH1 0x20 ADD SWAP1 DUP1 DUP4 DUP4 PUSH1 0x0 DUP4 EQ PUSH2 0xC0B JUMPI JUMPDEST DUP1 MLOAD DUP3 MSTORE PUSH1 0x20 DUP4 GT ISZERO PUSH2 0xC0B JUMPI PUSH1 0x1F NOT SWAP1 SWAP3 ADD SWAP2 PUSH1 0x20 SWAP2 DUP3 ADD SWAP2 ADD PUSH2 0xBEB JUMP JUMPDEST POP POP POP SWAP1 POP SWAP1 DUP2 ADD SWAP1 PUSH1 0x1F AND DUP1 ISZERO PUSH2 0xC37 JUMPI DUP1 DUP3 SUB DUP1 MLOAD PUSH1 0x1 DUP4 PUSH1 0x20 SUB PUSH2 0x100 EXP SUB NOT AND DUP2 MSTORE PUSH1 0x20 ADD SWAP2 POP JUMPDEST POP SWAP5 POP POP POP POP POP PUSH1 0x0 PUSH1 0x40 MLOAD DUP1 DUP4 SUB DUP2 PUSH1 0x0 DUP8 DUP1 EXTCODESIZE ISZERO ISZERO PUSH2 0xC54 JUMPI INVALID JUMPDEST PUSH2 0x2C6 GAS SUB CALL ISZERO ISZERO PUSH2 0xC62 JUMPI INVALID JUMPDEST POP POP POP JUMPDEST POP POP POP POP JUMP STOP LOG1 PUSH6 0x627A7A723058 SHA3 SWAP1 EXP DUP1 PUSH30 0x1C162B2C7F0BE9F59B8120E63B0B0FD26647826709C9E48FE46822FA0029 "
        },
        "gasEstimates": {
          "creation": {
            "codeDepositCost": "644800",
            "executionCost": "672",
            "totalCost": "645472"
          },
          "external": {
            "LinkToken()": "20407",
            "allowance(address,address)": "963",
            "approve(address,uint256)": "22698",
            "balanceOf(address)": "780",
            "decimals()": "270",
            "decreaseApproval(address,uint256)": "infinite",
            "increaseApproval(address,uint256)": "infinite",
            "name()": "530",
            "symbol()": "728",
            "totalSupply()": "217",
            "transfer(address,uint256)": "infinite",
            "transferAndCall(address,uint256,bytes)": "infinite",
            "transferFrom(address,address,uint256)": "infinite"
          }
        },
        "methodIdentifiers": {
          "LinkToken()": "4f8e2fdf",
          "allowance(address,address)": "dd62ed3e",
          "approve(address,uint256)": "095ea7b3",
          "balanceOf(address)": "70a08231",
          "decimals()": "313ce567",
          "decreaseApproval(address,uint256)": "66188463",
          "increaseApproval(address,uint256)": "d73dd623",
          "name()": "06fdde03",
          "symbol()": "95d89b41",
          "totalSupply()": "18160ddd",
          "transfer(address,uint256)": "a9059cbb",
          "transferAndCall(address,uint256,bytes)": "4000aea0",
          "transferFrom(address,address,uint256)": "23b872dd"
        }
      },
      "userdoc": {
        "methods": {}
      }
    }
  }
}