{
  "contracts/link/mocks/LinkReceiver.sol": {
    "LinkReceiver": {
      "abi": [
        {
          "constant": false,
          "inputs": [],
          "name": "callbackWithoutWithdrawl",
          "outputs": [],
          "payable": false,
          "type": "function"
        },
        {
          "constant": false,
          "inputs": [
            {
              "name": "_value",
              "type": "uint256"
            },
            {
              "name": "_from",
              "type": "address"
            },
            {
              "name": "_token",
              "type": "address"
            }
          ],
          "name": "callbackWithWithdrawl",
          "outputs": [],
          "payable": false,
          "type": "function"
        },
        {
          "constant": true,
          "inputs": [],
          "name": "tokensReceived",
          "outputs": [
            {
              "name": "",
              "type": "uint256"
            }
          ],
          "payable": false,
          "type": "function"
        },
        {
          "constant": false,
          "inputs": [
            {
              "name": "_from",
              "type": "address"
            },
            {
              "name": "_amount",
              "type": "uint256"
            },
            {
              "name": "_data",
              "type": "bytes"
            }
          ],
          "name": "onTokenTransfer",
          "outputs": [
            {
              "name": "success",
              "type": "bool"
            }
          ],
          "payable": false,
          "type": "function"
        },
        {
          "constant": true,
          "inputs": [],
          "name": "fallbackCalled",
          "outputs": [
            {
              "name": "",
              "type": "bool"
            }
          ],
          "payable": false,
          "type": "function"
        },
        {
          "constant": true,
          "inputs": [],
          "name": "callDataCalled",
          "outputs": [
            {
              "name": "",
              "type": "bool"
            }
          ],
          "payable": false,
          "type": "function"
        }
      ],
      "devdoc": {
        "methods": {}
      },
      "evm": {
        "assembly": "    /* \"contracts/link/mocks/LinkReceiver.sol\":62:742  contract LinkReceiver {... */\n  mstore(0x40, 0x60)\n  jumpi(tag_1, iszero(callvalue))\n  invalid\ntag_1:\ntag_2:\n  dataSize(sub_0)\n  dup1\n  dataOffset(sub_0)\n  0x0\n  codecopy\n  0x0\n  return\nstop\n\nsub_0: assembly {\n        /* \"contracts/link/mocks/LinkReceiver.sol\":62:742  contract LinkReceiver {... */\n      mstore(0x40, 0x60)\n      jumpi(tag_1, iszero(calldatasize))\n      and(div(calldataload(0x0), 0x100000000000000000000000000000000000000000000000000000000), 0xffffffff)\n      0x43e94bd\n      dup2\n      eq\n      tag_2\n      jumpi\n      dup1\n      0x82017ea\n      eq\n      tag_3\n      jumpi\n      dup1\n      0x3bb0cc55\n      eq\n      tag_4\n      jumpi\n      dup1\n      0xa4c0ed36\n      eq\n      tag_5\n      jumpi\n      dup1\n      0xaa2c4b02\n      eq\n      tag_6\n      jumpi\n      dup1\n      0xe2994d43\n      eq\n      tag_7\n      jumpi\n    tag_1:\n      invalid\n        /* \"contracts/link/mocks/LinkReceiver.sol\":445:513  function callbackWithoutWithdrawl() {... */\n    tag_2:\n      jumpi(tag_8, iszero(callvalue))\n      invalid\n    tag_8:\n      tag_9\n      jump(tag_10)\n    tag_9:\n      stop\n        /* \"contracts/link/mocks/LinkReceiver.sol\":517:739  function callbackWithWithdrawl(uint _value, address _from, address _token) {... */\n    tag_3:\n      jumpi(tag_11, iszero(callvalue))\n      invalid\n    tag_11:\n      tag_9\n      calldataload(0x4)\n      sub(exp(0x2, 0xa0), 0x1)\n      calldataload(0x24)\n      dup2\n      and\n      swap1\n      calldataload(0x44)\n      and\n      jump(tag_13)\n    tag_12:\n      stop\n        /* \"contracts/link/mocks/LinkReceiver.sol\":149:175  uint public tokensReceived */\n    tag_4:\n      jumpi(tag_14, iszero(callvalue))\n      invalid\n    tag_14:\n      tag_15\n      jump(tag_16)\n    tag_15:\n      0x40\n      dup1\n      mload\n      swap2\n      dup3\n      mstore\n      mload\n      swap1\n      dup2\n      swap1\n      sub\n      0x20\n      add\n      swap1\n      return\n        /* \"contracts/link/mocks/LinkReceiver.sol\":181:441  function onTokenTransfer(address _from, uint _amount, bytes _data)... */\n    tag_5:\n      jumpi(tag_17, iszero(callvalue))\n      invalid\n    tag_17:\n      0x40\n      dup1\n      mload\n      0x20\n      0x4\n      calldataload(0x44)\n      dup2\n      dup2\n      add\n      calldataload\n      0x1f\n      dup2\n      add\n      dup5\n      swap1\n      div\n      dup5\n      mul\n      dup6\n      add\n      dup5\n      add\n      swap1\n      swap6\n      mstore\n      dup5\n      dup5\n      mstore\n      tag_18\n      swap5\n      dup3\n      calldataload\n      sub(exp(0x2, 0xa0), 0x1)\n      and\n      swap5\n      0x24\n      dup1\n      calldataload\n      swap6\n      0x64\n      swap5\n      swap3\n      swap4\n      swap2\n      swap1\n      swap3\n      add\n      swap2\n      dup2\n      swap1\n      dup5\n      add\n      dup4\n      dup3\n      dup1\n      dup3\n      dup5\n      calldatacopy\n      pop\n      swap5\n      swap7\n      pop\n      tag_19\n      swap6\n      pop\n      pop\n      pop\n      pop\n      pop\n      pop\n      jump\n    tag_18:\n      0x40\n      dup1\n      mload\n      swap2\n      iszero\n      iszero\n      dup3\n      mstore\n      mload\n      swap1\n      dup2\n      swap1\n      sub\n      0x20\n      add\n      swap1\n      return\n        /* \"contracts/link/mocks/LinkReceiver.sol\":89:115  bool public fallbackCalled */\n    tag_6:\n      jumpi(tag_20, iszero(callvalue))\n      invalid\n    tag_20:\n      tag_18\n      jump(tag_22)\n    tag_21:\n      0x40\n      dup1\n      mload\n      swap2\n      iszero\n      iszero\n      dup3\n      mstore\n      mload\n      swap1\n      dup2\n      swap1\n      sub\n      0x20\n      add\n      swap1\n      return\n        /* \"contracts/link/mocks/LinkReceiver.sol\":119:145  bool public callDataCalled */\n    tag_7:\n      jumpi(tag_23, iszero(callvalue))\n      invalid\n    tag_23:\n      tag_18\n      jump(tag_25)\n    tag_24:\n      0x40\n      dup1\n      mload\n      swap2\n      iszero\n      iszero\n      dup3\n      mstore\n      mload\n      swap1\n      dup2\n      swap1\n      sub\n      0x20\n      add\n      swap1\n      return\n        /* \"contracts/link/mocks/LinkReceiver.sol\":445:513  function callbackWithoutWithdrawl() {... */\n    tag_10:\n        /* \"contracts/link/mocks/LinkReceiver.sol\":487:501  callDataCalled */\n      0x0\n        /* \"contracts/link/mocks/LinkReceiver.sol\":487:508  callDataCalled = true */\n      dup1\n      sload\n      not(0xff00)\n      and\n      0x100\n      or\n      swap1\n      sstore\n        /* \"contracts/link/mocks/LinkReceiver.sol\":445:513  function callbackWithoutWithdrawl() {... */\n    tag_26:\n      jump\t// out\n        /* \"contracts/link/mocks/LinkReceiver.sol\":517:739  function callbackWithWithdrawl(uint _value, address _from, address _token) {... */\n    tag_13:\n        /* \"contracts/link/mocks/LinkReceiver.sol\":625:640  linkERC20 token */\n      0x0\n        /* \"contracts/link/mocks/LinkReceiver.sol\":598:619  callDataCalled = true */\n      dup1\n      sload\n      not(0xff00)\n      and\n      0x100\n      or\n      dup2\n      sstore\n        /* \"contracts/link/mocks/LinkReceiver.sol\":666:705  token.transferFrom(_from, this, _value) */\n      0x40\n      dup1\n      mload\n      0x20\n      swap1\n      dup2\n      add\n      dup4\n      swap1\n      mstore\n      dup2\n      mload\n      0x23b872dd00000000000000000000000000000000000000000000000000000000\n      dup2\n      mstore\n      sub(exp(0x2, 0xa0), 0x1)\n      dup7\n      dup2\n      and\n      0x4\n      dup4\n      add\n      mstore\n        /* \"contracts/link/mocks/LinkReceiver.sol\":692:696  this */\n      address\n        /* \"contracts/link/mocks/LinkReceiver.sol\":666:705  token.transferFrom(_from, this, _value) */\n      dup2\n      and\n      0x24\n      dup4\n      add\n      mstore\n      0x44\n      dup3\n      add\n      dup9\n      swap1\n      mstore\n      swap3\n      mload\n        /* \"contracts/link/mocks/LinkReceiver.sol\":653:659  _token */\n      dup6\n      swap5\n        /* \"contracts/link/mocks/LinkReceiver.sol\":666:684  token.transferFrom */\n      swap4\n      dup6\n      and\n      swap4\n      0x23b872dd\n      swap4\n        /* \"contracts/link/mocks/LinkReceiver.sol\":666:705  token.transferFrom(_from, this, _value) */\n      0x64\n      dup1\n      dup6\n      add\n      swap5\n      swap2\n      swap4\n      swap3\n      swap2\n      dup4\n      swap1\n      sub\n      add\n      swap1\n      dup3\n      swap1\n        /* \"contracts/link/mocks/LinkReceiver.sol\":666:684  token.transferFrom */\n      dup8\n        /* \"contracts/link/mocks/LinkReceiver.sol\":666:705  token.transferFrom(_from, this, _value) */\n      dup1\n      extcodesize\n      iszero\n      iszero\n      tag_28\n      jumpi\n      invalid\n    tag_28:\n      sub(gas, 0x2c6)\n      call\n      iszero\n      iszero\n      tag_29\n      jumpi\n      invalid\n    tag_29:\n      pop\n      pop\n      pop\n        /* \"contracts/link/mocks/LinkReceiver.sol\":711:725  tokensReceived */\n      0x1\n        /* \"contracts/link/mocks/LinkReceiver.sol\":711:734  tokensReceived = _value */\n      dup5\n      swap1\n      sstore\n        /* \"contracts/link/mocks/LinkReceiver.sol\":517:739  function callbackWithWithdrawl(uint _value, address _from, address _token) {... */\n    tag_27:\n      pop\n      pop\n      pop\n      pop\n      jump\t// out\n        /* \"contracts/link/mocks/LinkReceiver.sol\":149:175  uint public tokensReceived */\n    tag_16:\n      sload(0x1)\n      dup2\n      jump\t// out\n        /* \"contracts/link/mocks/LinkReceiver.sol\":181:441  function onTokenTransfer(address _from, uint _amount, bytes _data)... */\n    tag_19:\n        /* \"contracts/link/mocks/LinkReceiver.sol\":266:278  bool success */\n      0x0\n        /* \"contracts/link/mocks/LinkReceiver.sol\":286:307  fallbackCalled = true */\n      dup1\n      sload\n      not(0xff)\n      and\n        /* \"contracts/link/mocks/LinkReceiver.sol\":303:307  true */\n      0x1\n        /* \"contracts/link/mocks/LinkReceiver.sol\":286:307  fallbackCalled = true */\n      or\n      dup2\n      sstore\n        /* \"contracts/link/mocks/LinkReceiver.sol\":317:329  _data.length */\n      dup2\n      mload\n        /* \"contracts/link/mocks/LinkReceiver.sol\":317:333  _data.length > 0 */\n      dup2\n      swap1\n      gt\n        /* \"contracts/link/mocks/LinkReceiver.sol\":313:420  if (_data.length > 0) {... */\n      iszero\n      tag_36\n      jumpi\n        /* \"contracts/link/mocks/LinkReceiver.sol\":359:363  this */\n      address\n      sub(exp(0x2, 0xa0), 0x1)\n        /* \"contracts/link/mocks/LinkReceiver.sol\":351:377  address(this).delegatecall */\n      and\n        /* \"contracts/link/mocks/LinkReceiver.sol\":378:383  _data */\n      dup3\n        /* \"contracts/link/mocks/LinkReceiver.sol\":385:395  msg.sender */\n      caller\n        /* \"contracts/link/mocks/LinkReceiver.sol\":397:402  _from */\n      dup7\n        /* \"contracts/link/mocks/LinkReceiver.sol\":404:411  _amount */\n      dup7\n        /* \"contracts/link/mocks/LinkReceiver.sol\":351:412  address(this).delegatecall(_data, msg.sender, _from, _amount) */\n      mstore(add(0x20, mload(0x40)), 0x0)\n      mload(0x40)\n      dup1\n      dup6\n      dup1\n      mload\n      swap1\n      0x20\n      add\n      swap1\n      dup1\n      dup4\n      dup4\n        /* \"--CODEGEN--\":26:27   */\n      0x0\n        /* \"--CODEGEN--\":21:24   */\n      dup4\n        /* \"--CODEGEN--\":18:20   */\n      eq\n        /* \"--CODEGEN--\":13:16   */\n      tag_32\n        /* \"--CODEGEN--\":7:12   */\n      jumpi\n        /* \"--CODEGEN--\":32:37   */\n    tag_33:\n        /* \"--CODEGEN--\":59:62   */\n      dup1\n        /* \"--CODEGEN--\":53:58   */\n      mload\n        /* \"--CODEGEN--\":48:51   */\n      dup3\n        /* \"--CODEGEN--\":41:47   */\n      mstore\n        /* \"--CODEGEN--\":93:95   */\n      0x20\n        /* \"--CODEGEN--\":88:91   */\n      dup4\n        /* \"--CODEGEN--\":85:87   */\n      gt\n        /* \"--CODEGEN--\":78:84   */\n      iszero\n        /* \"--CODEGEN--\":73:76   */\n      tag_32\n        /* \"--CODEGEN--\":67:72   */\n      jumpi\n      not(0x1f)\n        /* \"--CODEGEN--\":152:155   */\n      swap1\n      swap3\n      add\n      swap2\n        /* \"--CODEGEN--\":117:119   */\n      0x20\n        /* \"--CODEGEN--\":108:111   */\n      swap2\n      dup3\n      add\n      swap2\n        /* \"--CODEGEN--\":130:133   */\n      add\n        /* \"--CODEGEN--\":172:177   */\n      tag_33\n        /* \"--CODEGEN--\":167:171   */\n      jump\n        /* \"--CODEGEN--\":181:184   */\n    tag_32:\n        /* \"--CODEGEN--\":3:189   */\n      pop\n      pop\n      pop\n      swap1\n      pop\n      swap1\n      dup2\n      add\n      swap1\n      0x1f\n      and\n      dup1\n      iszero\n      tag_34\n      jumpi\n      dup1\n      dup3\n      sub\n      dup1\n      mload\n      0x1\n      dup4\n      0x20\n      sub\n      0x100\n      exp\n      sub\n      not\n      and\n      dup2\n      mstore\n      0x20\n      add\n      swap2\n      pop\n    tag_34:\n      pop\n      dup5\n      sub(exp(0x2, 0xa0), 0x1)\n      and\n      sub(exp(0x2, 0xa0), 0x1)\n      and\n      dup2\n      mstore\n      0x20\n      add\n      dup4\n      sub(exp(0x2, 0xa0), 0x1)\n      and\n      sub(exp(0x2, 0xa0), 0x1)\n      and\n      dup2\n      mstore\n      0x20\n      add\n      dup3\n      dup2\n      mstore\n      0x20\n      add\n      swap5\n      pop\n      pop\n      pop\n      pop\n      pop\n      0x20\n      mload(0x40)\n      dup1\n      dup4\n      sub\n      dup2\n      dup6\n      sub(gas, 0x2c6)\n      delegatecall\n      iszero\n      iszero\n      tag_35\n      jumpi\n      invalid\n    tag_35:\n      pop\n      pop\n      mload(mload(0x40))\n        /* \"contracts/link/mocks/LinkReceiver.sol\":343:413  require(address(this).delegatecall(_data, msg.sender, _from, _amount)) */\n      iszero\n      iszero\n      tag_36\n      jumpi\n      revert(0x0, 0x0)\n    tag_36:\n        /* \"contracts/link/mocks/LinkReceiver.sol\":313:420  if (_data.length > 0) {... */\n    tag_31:\n      pop\n        /* \"contracts/link/mocks/LinkReceiver.sol\":432:436  true */\n      0x1\n        /* \"contracts/link/mocks/LinkReceiver.sol\":181:441  function onTokenTransfer(address _from, uint _amount, bytes _data)... */\n    tag_30:\n      swap4\n      swap3\n      pop\n      pop\n      pop\n      jump\t// out\n        /* \"contracts/link/mocks/LinkReceiver.sol\":89:115  bool public fallbackCalled */\n    tag_22:\n      and(0xff, sload(0x0))\n      dup2\n      jump\t// out\n        /* \"contracts/link/mocks/LinkReceiver.sol\":119:145  bool public callDataCalled */\n    tag_25:\n      sload(0x0)\n      0x100\n      swap1\n      div\n      0xff\n      and\n      dup2\n      jump\t// out\n}\n",
        "bytecode": {
          "linkReferences": {},
          "object": "6060604052341561000c57fe5b5b6103978061001c6000396000f300606060405236156100755763ffffffff7c0100000000000000000000000000000000000000000000000000000000600035041663043e94bd8114610077578063082017ea146100895780633bb0cc55146100b0578063a4c0ed36146100d2578063aa2c4b0214610149578063e2994d431461016d575bfe5b341561007f57fe5b610087610191565b005b341561009157fe5b610087600435600160a060020a03602435811690604435166101a3565b005b34156100b857fe5b6100c0610249565b60408051918252519081900360200190f35b34156100da57fe5b604080516020600460443581810135601f8101849004840285018401909552848452610135948235600160a060020a031694602480359560649492939190920191819084018382808284375094965061024f95505050505050565b604080519115158252519081900360200190f35b341561015157fe5b610135610354565b604080519115158252519081900360200190f35b341561017557fe5b61013561035d565b604080519115158252519081900360200190f35b6000805461ff0019166101001790555b565b6000805461ff00191661010017815560408051602090810183905281517f23b872dd000000000000000000000000000000000000000000000000000000008152600160a060020a03868116600483015230811660248301526044820188905292518594938516936323b872dd93606480850194919392918390030190829087803b151561022c57fe5b6102c65a03f1151561023a57fe5b50505060018490555b50505050565b60015481565b6000805460ff191660011781558151819011156103485730600160a060020a031682338686600060405160200152604051808580519060200190808383600083146102b5575b8051825260208311156102b557601f199092019160209182019101610295565b505050905090810190601f1680156102e15780820380516001836020036101000a031916815260200191505b5084600160a060020a0316600160a060020a0316815260200183600160a060020a0316600160a060020a03168152602001828152602001945050505050602060405180830381856102c65a03f4151561033657fe5b50506040515115156103485760006000fd5b5b5060015b9392505050565b60005460ff1681565b600054610100900460ff16815600a165627a7a72305820b3177a0b58dad68e1b757ceb53c2d19c5b5d934f5d3cdfbef5f572498fe0e87e0029",
          "opcodes": "PUSH1 0x60 PUSH1 0x40 MSTORE CALLVALUE ISZERO PUSH2 0xC JUMPI INVALID JUMPDEST JUMPDEST PUSH2 0x397 DUP1 PUSH2 0x1C PUSH1 0x0 CODECOPY PUSH1 0x0 RETURN STOP PUSH1 0x60 PUSH1 0x40 MSTORE CALLDATASIZE ISZERO PUSH2 0x75 JUMPI PUSH4 0xFFFFFFFF PUSH29 0x100000000000000000000000000000000000000000000000000000000 PUSH1 0x0 CALLDATALOAD DIV AND PUSH4 0x43E94BD DUP2 EQ PUSH2 0x77 JUMPI DUP1 PUSH4 0x82017EA EQ PUSH2 0x89 JUMPI DUP1 PUSH4 0x3BB0CC55 EQ PUSH2 0xB0 JUMPI DUP1 PUSH4 0xA4C0ED36 EQ PUSH2 0xD2 JUMPI DUP1 PUSH4 0xAA2C4B02 EQ PUSH2 0x149 JUMPI DUP1 PUSH4 0xE2994D43 EQ PUSH2 0x16D JUMPI JUMPDEST INVALID JUMPDEST CALLVALUE ISZERO PUSH2 0x7F JUMPI INVALID JUMPDEST PUSH2 0x87 PUSH2 0x191 JUMP JUMPDEST STOP JUMPDEST CALLVALUE ISZERO PUSH2 0x91 JUMPI INVALID JUMPDEST PUSH2 0x87 PUSH1 0x4 CALLDATALOAD PUSH1 0x1 PUSH1 0xA0 PUSH1 0x2 EXP SUB PUSH1 0x24 CALLDATALOAD DUP2 AND SWAP1 PUSH1 0x44 CALLDATALOAD AND PUSH2 0x1A3 JUMP JUMPDEST STOP JUMPDEST CALLVALUE ISZERO PUSH2 0xB8 JUMPI INVALID JUMPDEST PUSH2 0xC0 PUSH2 0x249 JUMP JUMPDEST PUSH1 0x40 DUP1 MLOAD SWAP2 DUP3 MSTORE MLOAD SWAP1 DUP2 SWAP1 SUB PUSH1 0x20 ADD SWAP1 RETURN JUMPDEST CALLVALUE ISZERO PUSH2 0xDA JUMPI INVALID JUMPDEST PUSH1 0x40 DUP1 MLOAD PUSH1 0x20 PUSH1 0x4 PUSH1 0x44 CALLDATALOAD DUP2 DUP2 ADD CALLDATALOAD PUSH1 0x1F DUP2 ADD DUP5 SWAP1 DIV DUP5 MUL DUP6 ADD DUP5 ADD SWAP1 SWAP6 MSTORE DUP5 DUP5 MSTORE PUSH2 0x135 SWAP5 DUP3 CALLDATALOAD PUSH1 0x1 PUSH1 0xA0 PUSH1 0x2 EXP SUB AND SWAP5 PUSH1 0x24 DUP1 CALLDATALOAD SWAP6 PUSH1 0x64 SWAP5 SWAP3 SWAP4 SWAP2 SWAP1 SWAP3 ADD SWAP2 DUP2 SWAP1 DUP5 ADD DUP4 DUP3 DUP1 DUP3 DUP5 CALLDATACOPY POP SWAP5 SWAP7 POP PUSH2 0x24F SWAP6 POP POP POP POP POP POP JUMP JUMPDEST PUSH1 0x40 DUP1 MLOAD SWAP2 ISZERO ISZERO DUP3 MSTORE MLOAD SWAP1 DUP2 SWAP1 SUB PUSH1 0x20 ADD SWAP1 RETURN JUMPDEST CALLVALUE ISZERO PUSH2 0x151 JUMPI INVALID JUMPDEST PUSH2 0x135 PUSH2 0x354 JUMP JUMPDEST PUSH1 0x40 DUP1 MLOAD SWAP2 ISZERO ISZERO DUP3 MSTORE MLOAD SWAP1 DUP2 SWAP1 SUB PUSH1 0x20 ADD SWAP1 RETURN JUMPDEST CALLVALUE ISZERO PUSH2 0x175 JUMPI INVALID JUMPDEST PUSH2 0x135 PUSH2 0x35D JUMP JUMPDEST PUSH1 0x40 DUP1 MLOAD SWAP2 ISZERO ISZERO DUP3 MSTORE MLOAD SWAP1 DUP2 SWAP1 SUB PUSH1 0x20 ADD SWAP1 RETURN JUMPDEST PUSH1 0x0 DUP1 SLOAD PUSH2 0xFF00 NOT AND PUSH2 0x100 OR SWAP1 SSTORE JUMPDEST JUMP JUMPDEST PUSH1 0x0 DUP1 SLOAD PUSH2 0xFF00 NOT AND PUSH2 0x100 OR DUP2 SSTORE PUSH1 0x40 DUP1 MLOAD PUSH1 0x20 SWAP1 DUP2 ADD DUP4 SWAP1 MSTORE DUP2 MLOAD PUSH32 0x23B872DD00000000000000000000000000000000000000000000000000000000 DUP2 MSTORE PUSH1 0x1 PUSH1 0xA0 PUSH1 0x2 EXP SUB DUP7 DUP2 AND PUSH1 0x4 DUP4 ADD MSTORE ADDRESS DUP2 AND PUSH1 0x24 DUP4 ADD MSTORE PUSH1 0x44 DUP3 ADD DUP9 SWAP1 MSTORE SWAP3 MLOAD DUP6 SWAP5 SWAP4 DUP6 AND SWAP4 PUSH4 0x23B872DD SWAP4 PUSH1 0x64 DUP1 DUP6 ADD SWAP5 SWAP2 SWAP4 SWAP3 SWAP2 DUP4 SWAP1 SUB ADD SWAP1 DUP3 SWAP1 DUP8 DUP1 EXTCODESIZE ISZERO ISZERO PUSH2 0x22C JUMPI INVALID JUMPDEST PUSH2 0x2C6 GAS SUB CALL ISZERO ISZERO PUSH2 0x23A JUMPI INVALID JUMPDEST POP POP POP PUSH1 0x1 DUP5 SWAP1 SSTORE JUMPDEST POP POP POP POP JUMP JUMPDEST PUSH1 0x1 SLOAD DUP2 JUMP JUMPDEST PUSH1 0x0 DUP1 SLOAD PUSH1 0xFF NOT AND PUSH1 0x1 OR DUP2 SSTORE DUP2 MLOAD DUP2 SWAP1 GT ISZERO PUSH2 0x348 JUMPI ADDRESS PUSH1 0x1 PUSH1 0xA0 PUSH1 0x2 EXP SUB AND DUP3 CALLER DUP7 DUP7 PUSH1 0x0 PUSH1 0x40 MLOAD PUSH1 0x20 ADD MSTORE PUSH1 0x40 MLOAD DUP1 DUP6 DUP1 MLOAD SWAP1 PUSH1 0x20 ADD SWAP1 DUP1 DUP4 DUP4 PUSH1 0x0 DUP4 EQ PUSH2 0x2B5 JUMPI JUMPDEST DUP1 MLOAD DUP3 MSTORE PUSH1 0x20 DUP4 GT ISZERO PUSH2 0x2B5 JUMPI PUSH1 0x1F NOT SWAP1 SWAP3 ADD SWAP2 PUSH1 0x20 SWAP2 DUP3 ADD SWAP2 ADD PUSH2 0x295 JUMP JUMPDEST POP POP POP SWAP1 POP SWAP1 DUP2 ADD SWAP1 PUSH1 0x1F AND DUP1 ISZERO PUSH2 0x2E1 JUMPI DUP1 DUP3 SUB DUP1 MLOAD PUSH1 0x1 DUP4 PUSH1 0x20 SUB PUSH2 0x100 EXP SUB NOT AND DUP2 MSTORE PUSH1 0x20 ADD SWAP2 POP JUMPDEST POP DUP5 PUSH1 0x1 PUSH1 0xA0 PUSH1 0x2 EXP SUB AND PUSH1 0x1 PUSH1 0xA0 PUSH1 0x2 EXP SUB AND DUP2 MSTORE PUSH1 0x20 ADD DUP4 PUSH1 0x1 PUSH1 0xA0 PUSH1 0x2 EXP SUB AND PUSH1 0x1 PUSH1 0xA0 PUSH1 0x2 EXP SUB AND DUP2 MSTORE PUSH1 0x20 ADD DUP3 DUP2 MSTORE PUSH1 0x20 ADD SWAP5 POP POP POP POP POP PUSH1 0x20 PUSH1 0x40 MLOAD DUP1 DUP4 SUB DUP2 DUP6 PUSH2 0x2C6 GAS SUB DELEGATECALL ISZERO ISZERO PUSH2 0x336 JUMPI INVALID JUMPDEST POP POP PUSH1 0x40 MLOAD MLOAD ISZERO ISZERO PUSH2 0x348 JUMPI PUSH1 0x0 PUSH1 0x0 REVERT JUMPDEST JUMPDEST POP PUSH1 0x1 JUMPDEST SWAP4 SWAP3 POP POP POP JUMP JUMPDEST PUSH1 0x0 SLOAD PUSH1 0xFF AND DUP2 JUMP JUMPDEST PUSH1 0x0 SLOAD PUSH2 0x100 SWAP1 DIV PUSH1 0xFF AND DUP2 JUMP STOP LOG1 PUSH6 0x627A7A723058 SHA3 0xb3 OR PUSH27 0xB58DAD68E1B757CEB53C2D19C5B5D934F5D3CDFBEF5F572498FE0 0xe8 PUSH31 0x290000000000000000000000000000000000000000000000000000000000 "
        },
        "gasEstimates": {
          "creation": {
            "codeDepositCost": "183800",
            "executionCost": "222",
            "totalCost": "184022"
          },
          "external": {
            "callDataCalled()": "506",
            "callbackWithWithdrawl(uint256,address,address)": "infinite",
            "callbackWithoutWithdrawl()": "20347",
            "fallbackCalled()": "473",
            "onTokenTransfer(address,uint256,bytes)": "infinite",
            "tokensReceived()": "417"
          }
        },
        "methodIdentifiers": {
          "callDataCalled()": "e2994d43",
          "callbackWithWithdrawl(uint256,address,address)": "082017ea",
          "callbackWithoutWithdrawl()": "043e94bd",
          "fallbackCalled()": "aa2c4b02",
          "onTokenTransfer(address,uint256,bytes)": "a4c0ed36",
          "tokensReceived()": "3bb0cc55"
        }
      },
      "userdoc": {
        "methods": {}
      }
    }
  }
}